{
  "_format": "hh-sol-artifact-1",
  "contractName": "ERC721Minimal",
  "sourceName": "contracts/ERC721Minimal.sol",
  "abi": [
    {
      "inputs": [
        {
          "internalType": "string",
          "name": "_name",
          "type": "string"
        },
        {
          "internalType": "string",
          "name": "_symbol",
          "type": "string"
        }
      ],
      "stateMutability": "nonpayable",
      "type": "constructor"
    },
    {
      "anonymous": false,
      "inputs": [
        {
          "indexed": true,
          "internalType": "address",
          "name": "owner",
          "type": "address"
        },
        {
          "indexed": true,
          "internalType": "address",
          "name": "approved",
          "type": "address"
        },
        {
          "indexed": true,
          "internalType": "uint256",
          "name": "tokenId",
          "type": "uint256"
        }
      ],
      "name": "Approval",
      "type": "event"
    },
    {
      "anonymous": false,
      "inputs": [
        {
          "indexed": true,
          "internalType": "address",
          "name": "owner",
          "type": "address"
        },
        {
          "indexed": true,
          "internalType": "address",
          "name": "operator",
          "type": "address"
        },
        {
          "indexed": false,
          "internalType": "bool",
          "name": "approved",
          "type": "bool"
        }
      ],
      "name": "ApprovalForAll",
      "type": "event"
    },
    {
      "anonymous": false,
      "inputs": [
        {
          "indexed": true,
          "internalType": "address",
          "name": "from",
          "type": "address"
        },
        {
          "indexed": true,
          "internalType": "address",
          "name": "to",
          "type": "address"
        },
        {
          "indexed": true,
          "internalType": "uint256",
          "name": "tokenId",
          "type": "uint256"
        }
      ],
      "name": "Transfer",
      "type": "event"
    },
    {
      "inputs": [
        {
          "internalType": "address",
          "name": "to",
          "type": "address"
        },
        {
          "internalType": "uint256",
          "name": "tokenId",
          "type": "uint256"
        }
      ],
      "name": "approve",
      "outputs": [],
      "stateMutability": "nonpayable",
      "type": "function"
    },
    {
      "inputs": [
        {
          "internalType": "address",
          "name": "owner",
          "type": "address"
        }
      ],
      "name": "balanceOf",
      "outputs": [
        {
          "internalType": "uint256",
          "name": "",
          "type": "uint256"
        }
      ],
      "stateMutability": "view",
      "type": "function"
    },
    {
      "inputs": [
        {
          "internalType": "uint256",
          "name": "tokenId",
          "type": "uint256"
        }
      ],
      "name": "getApproved",
      "outputs": [
        {
          "internalType": "address",
          "name": "",
          "type": "address"
        }
      ],
      "stateMutability": "view",
      "type": "function"
    },
    {
      "inputs": [
        {
          "internalType": "address",
          "name": "owner",
          "type": "address"
        },
        {
          "internalType": "address",
          "name": "operator",
          "type": "address"
        }
      ],
      "name": "isApprovedForAll",
      "outputs": [
        {
          "internalType": "bool",
          "name": "",
          "type": "bool"
        }
      ],
      "stateMutability": "view",
      "type": "function"
    },
    {
      "inputs": [
        {
          "internalType": "address",
          "name": "target",
          "type": "address"
        },
        {
          "internalType": "uint256",
          "name": "count",
          "type": "uint256"
        }
      ],
      "name": "mint",
      "outputs": [],
      "stateMutability": "nonpayable",
      "type": "function"
    },
    {
      "inputs": [],
      "name": "name",
      "outputs": [
        {
          "internalType": "string",
          "name": "",
          "type": "string"
        }
      ],
      "stateMutability": "view",
      "type": "function"
    },
    {
      "inputs": [
        {
          "internalType": "uint256",
          "name": "tokenId",
          "type": "uint256"
        }
      ],
      "name": "ownerOf",
      "outputs": [
        {
          "internalType": "address",
          "name": "",
          "type": "address"
        }
      ],
      "stateMutability": "view",
      "type": "function"
    },
    {
      "inputs": [
        {
          "internalType": "address",
          "name": "from",
          "type": "address"
        },
        {
          "internalType": "address",
          "name": "to",
          "type": "address"
        },
        {
          "internalType": "uint256",
          "name": "tokenId",
          "type": "uint256"
        }
      ],
      "name": "safeTransferFrom",
      "outputs": [],
      "stateMutability": "nonpayable",
      "type": "function"
    },
    {
      "inputs": [
        {
          "internalType": "address",
          "name": "from",
          "type": "address"
        },
        {
          "internalType": "address",
          "name": "to",
          "type": "address"
        },
        {
          "internalType": "uint256",
          "name": "tokenId",
          "type": "uint256"
        },
        {
          "internalType": "bytes",
          "name": "_data",
          "type": "bytes"
        }
      ],
      "name": "safeTransferFrom",
      "outputs": [],
      "stateMutability": "nonpayable",
      "type": "function"
    },
    {
      "inputs": [
        {
          "internalType": "address",
          "name": "operator",
          "type": "address"
        },
        {
          "internalType": "bool",
          "name": "approved",
          "type": "bool"
        }
      ],
      "name": "setApprovalForAll",
      "outputs": [],
      "stateMutability": "nonpayable",
      "type": "function"
    },
    {
      "inputs": [
        {
          "internalType": "bytes4",
          "name": "interfaceId",
          "type": "bytes4"
        }
      ],
      "name": "supportsInterface",
      "outputs": [
        {
          "internalType": "bool",
          "name": "",
          "type": "bool"
        }
      ],
      "stateMutability": "view",
      "type": "function"
    },
    {
      "inputs": [],
      "name": "symbol",
      "outputs": [
        {
          "internalType": "string",
          "name": "",
          "type": "string"
        }
      ],
      "stateMutability": "view",
      "type": "function"
    },
    {
      "inputs": [
        {
          "internalType": "uint256",
          "name": "index",
          "type": "uint256"
        }
      ],
      "name": "tokenByIndex",
      "outputs": [
        {
          "internalType": "uint256",
          "name": "",
          "type": "uint256"
        }
      ],
      "stateMutability": "view",
      "type": "function"
    },
    {
      "inputs": [
        {
          "internalType": "address",
          "name": "owner",
          "type": "address"
        },
        {
          "internalType": "uint256",
          "name": "index",
          "type": "uint256"
        }
      ],
      "name": "tokenOfOwnerByIndex",
      "outputs": [
        {
          "internalType": "uint256",
          "name": "",
          "type": "uint256"
        }
      ],
      "stateMutability": "view",
      "type": "function"
    },
    {
      "inputs": [
        {
          "internalType": "uint256",
          "name": "tokenId",
          "type": "uint256"
        }
      ],
      "name": "tokenURI",
      "outputs": [
        {
          "internalType": "string",
          "name": "",
          "type": "string"
        }
      ],
      "stateMutability": "view",
      "type": "function"
    },
    {
      "inputs": [],
      "name": "totalSupply",
      "outputs": [
        {
          "internalType": "uint256",
          "name": "",
          "type": "uint256"
        }
      ],
      "stateMutability": "view",
      "type": "function"
    },
    {
      "inputs": [
        {
          "internalType": "address",
          "name": "from",
          "type": "address"
        },
        {
          "internalType": "address",
          "name": "to",
          "type": "address"
        },
        {
          "internalType": "uint256",
          "name": "tokenId",
          "type": "uint256"
        }
      ],
      "name": "transferFrom",
      "outputs": [],
      "stateMutability": "nonpayable",
      "type": "function"
    }
  ],
  "bytecode": "0x60806040523480156200001157600080fd5b506040516200338f3803806200338f8339818101604052810190620000379190620001ce565b8181816000908051906020019062000051929190620000ac565b5080600190805190602001906200006a929190620000ac565b505050620000a17f35182fb4827e9fa030bdd6017cabb9cd23056fafaa47400613b17ba2591a1b2d60001b620000a960201b60201c565b5050620003b1565b50565b828054620000ba90620002d6565b90600052602060002090601f016020900481019282620000de57600085556200012a565b82601f10620000f957805160ff19168380011785556200012a565b828001600101855582156200012a579182015b82811115620001295782518255916020019190600101906200010c565b5b5090506200013991906200013d565b5090565b5b80821115620001585760008160009055506001016200013e565b5090565b6000620001736200016d846200026a565b62000241565b9050828152602081018484840111156200018c57600080fd5b62000199848285620002a0565b509392505050565b600082601f830112620001b357600080fd5b8151620001c58482602086016200015c565b91505092915050565b60008060408385031215620001e257600080fd5b600083015167ffffffffffffffff811115620001fd57600080fd5b6200020b85828601620001a1565b925050602083015167ffffffffffffffff8111156200022957600080fd5b6200023785828601620001a1565b9150509250929050565b60006200024d62000260565b90506200025b82826200030c565b919050565b6000604051905090565b600067ffffffffffffffff82111562000288576200028762000371565b5b6200029382620003a0565b9050602081019050919050565b60005b83811015620002c0578082015181840152602081019050620002a3565b83811115620002d0576000848401525b50505050565b60006002820490506001821680620002ef57607f821691505b6020821081141562000306576200030562000342565b5b50919050565b6200031782620003a0565b810181811067ffffffffffffffff8211171562000339576200033862000371565b5b80604052505050565b7f4e487b7100000000000000000000000000000000000000000000000000000000600052602260045260246000fd5b7f4e487b7100000000000000000000000000000000000000000000000000000000600052604160045260246000fd5b6000601f19601f8301169050919050565b612fce80620003c16000396000f3fe608060405234801561001057600080fd5b506004361061010b5760003560e01c806342842e0e116100a257806395d89b411161007157806395d89b41146102dc578063a22cb465146102fa578063b88d4fde14610316578063c87b56dd14610332578063e985e9c5146103625761010b565b806342842e0e146102305780634f6ccce71461024c5780636352211e1461027c57806370a08231146102ac5761010b565b806318160ddd116100de57806318160ddd146101aa57806323b872dd146101c85780632f745c59146101e457806340c10f19146102145761010b565b806301ffc9a71461011057806306fdde0314610140578063081812fc1461015e578063095ea7b31461018e575b600080fd5b61012a600480360381019061012591906120ac565b610392565b60405161013791906124b2565b60405180910390f35b61014861040c565b60405161015591906124cd565b60405180910390f35b610178600480360381019061017391906120fe565b61049e565b604051610185919061244b565b60405180910390f35b6101a860048036038101906101a39190612070565b610523565b005b6101b261063b565b6040516101bf91906126ef565b60405180910390f35b6101e260048036038101906101dd9190611f6a565b610648565b005b6101fe60048036038101906101f99190612070565b6106a8565b60405161020b91906126ef565b60405180910390f35b61022e60048036038101906102299190612070565b61074d565b005b61024a60048036038101906102459190611f6a565b610856565b005b610266600480360381019061026191906120fe565b610876565b60405161027391906126ef565b60405180910390f35b610296600480360381019061029191906120fe565b61090d565b6040516102a3919061244b565b60405180910390f35b6102c660048036038101906102c19190611f05565b6109bf565b6040516102d391906126ef565b60405180910390f35b6102e4610a77565b6040516102f191906124cd565b60405180910390f35b610314600480360381019061030f9190612034565b610b09565b005b610330600480360381019061032b9190611fb9565b610b1f565b005b61034c600480360381019061034791906120fe565b610b81565b60405161035991906124cd565b60405180910390f35b61037c60048036038101906103779190611f2e565b610c28565b60405161038991906124b2565b60405180910390f35b60007f780e9d63000000000000000000000000000000000000000000000000000000007bffffffffffffffffffffffffffffffffffffffffffffffffffffffff1916827bffffffffffffffffffffffffffffffffffffffffffffffffffffffff19161480610405575061040482610cbc565b5b9050919050565b60606000805461041b90612914565b80601f016020809104026020016040519081016040528092919081815260200182805461044790612914565b80156104945780601f1061046957610100808354040283529160200191610494565b820191906000526020600020905b81548152906001019060200180831161047757829003601f168201915b5050505050905090565b60006104a982610d9e565b6104e8576040517f08c379a00000000000000000000000000000000000000000000000000000000081526004016104df9061264f565b60405180910390fd5b6004600083815260200190815260200160002060009054906101000a900473ffffffffffffffffffffffffffffffffffffffff169050919050565b600061052e8261090d565b90508073ffffffffffffffffffffffffffffffffffffffff168373ffffffffffffffffffffffffffffffffffffffff16141561059f576040517f08c379a00000000000000000000000000000000000000000000000000000000081526004016105969061268f565b60405180910390fd5b8073ffffffffffffffffffffffffffffffffffffffff166105be610e0a565b73ffffffffffffffffffffffffffffffffffffffff1614806105ed57506105ec816105e7610e0a565b610c28565b5b61062c576040517f08c379a0000000000000000000000000000000000000000000000000000000008152600401610623906125cf565b60405180910390fd5b6106368383610e12565b505050565b6000600880549050905090565b610659610653610e0a565b82610ecb565b610698576040517f08c379a000000000000000000000000000000000000000000000000000000000815260040161068f906126af565b60405180910390fd5b6106a3838383610fa9565b505050565b60006106b3836109bf565b82106106f4576040517f08c379a00000000000000000000000000000000000000000000000000000000081526004016106eb906124ef565b60405180910390fd5b600660008473ffffffffffffffffffffffffffffffffffffffff1673ffffffffffffffffffffffffffffffffffffffff168152602001908152602001600020600083815260200190815260200160002054905092915050565b6107797f1ccd3b1edcbc5136ea5748ced155a7ebcc8669576041a79867ac88a8d3194dc360001b611210565b6107a57f6759a9078c3f9a8bfb553ba914f04e53fbf0186c062c8528d1965c33a9308eab60001b611210565b6107d17f62267955cc474e514ae40beba09faed9379a68728ab8e2442547e013938f80a660001b611210565b60005b81811015610851576108087f506b7de5652e00cb826a42c0ba6785790070860ada128625ef143780b4149eaa60001b611210565b6108347ff756f804dc06afa78c2da2c3a556d358ffe7a2e9e12533d894a5c9ef7d75a9d560001b611210565b61083e8382611213565b808061084990612977565b9150506107d4565b505050565b61087183838360405180602001604052806000815250610b1f565b505050565b600061088061063b565b82106108c1576040517f08c379a00000000000000000000000000000000000000000000000000000000081526004016108b8906126cf565b60405180910390fd5b600882815481106108fb577f4e487b7100000000000000000000000000000000000000000000000000000000600052603260045260246000fd5b90600052602060002001549050919050565b6000806002600084815260200190815260200160002060009054906101000a900473ffffffffffffffffffffffffffffffffffffffff169050600073ffffffffffffffffffffffffffffffffffffffff168173ffffffffffffffffffffffffffffffffffffffff1614156109b6576040517f08c379a00000000000000000000000000000000000000000000000000000000081526004016109ad9061260f565b60405180910390fd5b80915050919050565b60008073ffffffffffffffffffffffffffffffffffffffff168273ffffffffffffffffffffffffffffffffffffffff161415610a30576040517f08c379a0000000000000000000000000000000000000000000000000000000008152600401610a27906125ef565b60405180910390fd5b600360008373ffffffffffffffffffffffffffffffffffffffff1673ffffffffffffffffffffffffffffffffffffffff168152602001908152602001600020549050919050565b606060018054610a8690612914565b80601f0160208091040260200160405190810160405280929190818152602001828054610ab290612914565b8015610aff5780601f10610ad457610100808354040283529160200191610aff565b820191906000526020600020905b815481529060010190602001808311610ae257829003601f168201915b5050505050905090565b610b1b610b14610e0a565b83836113ed565b5050565b610b30610b2a610e0a565b83610ecb565b610b6f576040517f08c379a0000000000000000000000000000000000000000000000000000000008152600401610b66906126af565b60405180910390fd5b610b7b8484848461155a565b50505050565b6060610b8c82610d9e565b610bcb576040517f08c379a0000000000000000000000000000000000000000000000000000000008152600401610bc29061266f565b60405180910390fd5b6000610bd56115b6565b90506000815111610bf55760405180602001604052806000815250610c20565b80610bff846115cd565b604051602001610c10929190612427565b6040516020818303038152906040525b915050919050565b6000600560008473ffffffffffffffffffffffffffffffffffffffff1673ffffffffffffffffffffffffffffffffffffffff16815260200190815260200160002060008373ffffffffffffffffffffffffffffffffffffffff1673ffffffffffffffffffffffffffffffffffffffff16815260200190815260200160002060009054906101000a900460ff16905092915050565b60007f80ac58cd000000000000000000000000000000000000000000000000000000007bffffffffffffffffffffffffffffffffffffffffffffffffffffffff1916827bffffffffffffffffffffffffffffffffffffffffffffffffffffffff19161480610d8757507f5b5e139f000000000000000000000000000000000000000000000000000000007bffffffffffffffffffffffffffffffffffffffffffffffffffffffff1916827bffffffffffffffffffffffffffffffffffffffffffffffffffffffff1916145b80610d975750610d968261177a565b5b9050919050565b60008073ffffffffffffffffffffffffffffffffffffffff166002600084815260200190815260200160002060009054906101000a900473ffffffffffffffffffffffffffffffffffffffff1673ffffffffffffffffffffffffffffffffffffffff1614159050919050565b600033905090565b816004600083815260200190815260200160002060006101000a81548173ffffffffffffffffffffffffffffffffffffffff021916908373ffffffffffffffffffffffffffffffffffffffff160217905550808273ffffffffffffffffffffffffffffffffffffffff16610e858361090d565b73ffffffffffffffffffffffffffffffffffffffff167f8c5be1e5ebec7d5bd14f71427d1e84f3dd0314c0f7b2291e5b200ac8c7c3b92560405160405180910390a45050565b6000610ed682610d9e565b610f15576040517f08c379a0000000000000000000000000000000000000000000000000000000008152600401610f0c906125af565b60405180910390fd5b6000610f208361090d565b90508073ffffffffffffffffffffffffffffffffffffffff168473ffffffffffffffffffffffffffffffffffffffff161480610f625750610f618185610c28565b5b80610fa057508373ffffffffffffffffffffffffffffffffffffffff16610f888461049e565b73ffffffffffffffffffffffffffffffffffffffff16145b91505092915050565b8273ffffffffffffffffffffffffffffffffffffffff16610fc98261090d565b73ffffffffffffffffffffffffffffffffffffffff161461101f576040517f08c379a00000000000000000000000000000000000000000000000000000000081526004016110169061252f565b60405180910390fd5b600073ffffffffffffffffffffffffffffffffffffffff168273ffffffffffffffffffffffffffffffffffffffff16141561108f576040517f08c379a00000000000000000000000000000000000000000000000000000000081526004016110869061256f565b60405180910390fd5b61109a8383836117e4565b6110a5600082610e12565b6001600360008573ffffffffffffffffffffffffffffffffffffffff1673ffffffffffffffffffffffffffffffffffffffff16815260200190815260200160002060008282546110f5919061282a565b925050819055506001600360008473ffffffffffffffffffffffffffffffffffffffff1673ffffffffffffffffffffffffffffffffffffffff168152602001908152602001600020600082825461114c91906127a3565b92505081905550816002600083815260200190815260200160002060006101000a81548173ffffffffffffffffffffffffffffffffffffffff021916908373ffffffffffffffffffffffffffffffffffffffff160217905550808273ffffffffffffffffffffffffffffffffffffffff168473ffffffffffffffffffffffffffffffffffffffff167fddf252ad1be2c89b69c2b068fc378daa952ba7f163c4a11628f55a4df523b3ef60405160405180910390a461120b8383836118f8565b505050565b50565b600073ffffffffffffffffffffffffffffffffffffffff168273ffffffffffffffffffffffffffffffffffffffff161415611283576040517f08c379a000000000000000000000000000000000000000000000000000000000815260040161127a9061262f565b60405180910390fd5b61128c81610d9e565b156112cc576040517f08c379a00000000000000000000000000000000000000000000000000000000081526004016112c39061254f565b60405180910390fd5b6112d8600083836117e4565b6001600360008473ffffffffffffffffffffffffffffffffffffffff1673ffffffffffffffffffffffffffffffffffffffff168152602001908152602001600020600082825461132891906127a3565b92505081905550816002600083815260200190815260200160002060006101000a81548173ffffffffffffffffffffffffffffffffffffffff021916908373ffffffffffffffffffffffffffffffffffffffff160217905550808273ffffffffffffffffffffffffffffffffffffffff16600073ffffffffffffffffffffffffffffffffffffffff167fddf252ad1be2c89b69c2b068fc378daa952ba7f163c4a11628f55a4df523b3ef60405160405180910390a46113e9600083836118f8565b5050565b8173ffffffffffffffffffffffffffffffffffffffff168373ffffffffffffffffffffffffffffffffffffffff16141561145c576040517f08c379a00000000000000000000000000000000000000000000000000000000081526004016114539061258f565b60405180910390fd5b80600560008573ffffffffffffffffffffffffffffffffffffffff1673ffffffffffffffffffffffffffffffffffffffff16815260200190815260200160002060008473ffffffffffffffffffffffffffffffffffffffff1673ffffffffffffffffffffffffffffffffffffffff16815260200190815260200160002060006101000a81548160ff0219169083151502179055508173ffffffffffffffffffffffffffffffffffffffff168373ffffffffffffffffffffffffffffffffffffffff167f17307eab39ab6107e8899845ad3d59bd9653f200f220920489ca2b5937696c318360405161154d91906124b2565b60405180910390a3505050565b611565848484610fa9565b611571848484846118fd565b6115b0576040517f08c379a00000000000000000000000000000000000000000000000000000000081526004016115a79061250f565b60405180910390fd5b50505050565b606060405180602001604052806000815250905090565b60606000821415611615576040518060400160405280600181526020017f30000000000000000000000000000000000000000000000000000000000000008152509050611775565b600082905060005b6000821461164757808061163090612977565b915050600a8261164091906127f9565b915061161d565b60008167ffffffffffffffff811115611689577f4e487b7100000000000000000000000000000000000000000000000000000000600052604160045260246000fd5b6040519080825280601f01601f1916602001820160405280156116bb5781602001600182028036833780820191505090505b5090505b6000851461176e576001826116d4919061282a565b9150600a856116e391906129c0565b60306116ef91906127a3565b60f81b81838151811061172b577f4e487b7100000000000000000000000000000000000000000000000000000000600052603260045260246000fd5b60200101907effffffffffffffffffffffffffffffffffffffffffffffffffffffffffffff1916908160001a905350600a8561176791906127f9565b94506116bf565b8093505050505b919050565b60007f01ffc9a7000000000000000000000000000000000000000000000000000000007bffffffffffffffffffffffffffffffffffffffffffffffffffffffff1916827bffffffffffffffffffffffffffffffffffffffffffffffffffffffff1916149050919050565b6117ef838383611a94565b600073ffffffffffffffffffffffffffffffffffffffff168373ffffffffffffffffffffffffffffffffffffffff1614156118325761182d81611a99565b611871565b8173ffffffffffffffffffffffffffffffffffffffff168373ffffffffffffffffffffffffffffffffffffffff16146118705761186f8382611ae2565b5b5b600073ffffffffffffffffffffffffffffffffffffffff168273ffffffffffffffffffffffffffffffffffffffff1614156118b4576118af81611c4f565b6118f3565b8273ffffffffffffffffffffffffffffffffffffffff168273ffffffffffffffffffffffffffffffffffffffff16146118f2576118f18282611d92565b5b5b505050565b505050565b600061191e8473ffffffffffffffffffffffffffffffffffffffff16611e11565b15611a87578373ffffffffffffffffffffffffffffffffffffffff1663150b7a02611947610e0a565b8786866040518563ffffffff1660e01b81526004016119699493929190612466565b602060405180830381600087803b15801561198357600080fd5b505af19250505080156119b457506040513d601f19601f820116820180604052508101906119b191906120d5565b60015b611a37573d80600081146119e4576040519150601f19603f3d011682016040523d82523d6000602084013e6119e9565b606091505b50600081511415611a2f576040517f08c379a0000000000000000000000000000000000000000000000000000000008152600401611a269061250f565b60405180910390fd5b805181602001fd5b63150b7a0260e01b7bffffffffffffffffffffffffffffffffffffffffffffffffffffffff1916817bffffffffffffffffffffffffffffffffffffffffffffffffffffffff191614915050611a8c565b600190505b949350505050565b505050565b6008805490506009600083815260200190815260200160002081905550600881908060018154018082558091505060019003906000526020600020016000909190919091505550565b60006001611aef846109bf565b611af9919061282a565b9050600060076000848152602001908152602001600020549050818114611bde576000600660008673ffffffffffffffffffffffffffffffffffffffff1673ffffffffffffffffffffffffffffffffffffffff168152602001908152602001600020600084815260200190815260200160002054905080600660008773ffffffffffffffffffffffffffffffffffffffff1673ffffffffffffffffffffffffffffffffffffffff168152602001908152602001600020600084815260200190815260200160002081905550816007600083815260200190815260200160002081905550505b6007600084815260200190815260200160002060009055600660008573ffffffffffffffffffffffffffffffffffffffff1673ffffffffffffffffffffffffffffffffffffffff16815260200190815260200160002060008381526020019081526020016000206000905550505050565b60006001600880549050611c63919061282a565b9050600060096000848152602001908152602001600020549050600060088381548110611cb9577f4e487b7100000000000000000000000000000000000000000000000000000000600052603260045260246000fd5b906000526020600020015490508060088381548110611d01577f4e487b7100000000000000000000000000000000000000000000000000000000600052603260045260246000fd5b906000526020600020018190555081600960008381526020019081526020016000208190555060096000858152602001908152602001600020600090556008805480611d76577f4e487b7100000000000000000000000000000000000000000000000000000000600052603160045260246000fd5b6001900381819060005260206000200160009055905550505050565b6000611d9d836109bf565b905081600660008573ffffffffffffffffffffffffffffffffffffffff1673ffffffffffffffffffffffffffffffffffffffff168152602001908152602001600020600083815260200190815260200160002081905550806007600084815260200190815260200160002081905550505050565b6000808273ffffffffffffffffffffffffffffffffffffffff163b119050919050565b6000611e47611e428461272f565b61270a565b905082815260208101848484011115611e5f57600080fd5b611e6a8482856128d2565b509392505050565b600081359050611e8181612f3c565b92915050565b600081359050611e9681612f53565b92915050565b600081359050611eab81612f6a565b92915050565b600081519050611ec081612f6a565b92915050565b600082601f830112611ed757600080fd5b8135611ee7848260208601611e34565b91505092915050565b600081359050611eff81612f81565b92915050565b600060208284031215611f1757600080fd5b6000611f2584828501611e72565b91505092915050565b60008060408385031215611f4157600080fd5b6000611f4f85828601611e72565b9250506020611f6085828601611e72565b9150509250929050565b600080600060608486031215611f7f57600080fd5b6000611f8d86828701611e72565b9350506020611f9e86828701611e72565b9250506040611faf86828701611ef0565b9150509250925092565b60008060008060808587031215611fcf57600080fd5b6000611fdd87828801611e72565b9450506020611fee87828801611e72565b9350506040611fff87828801611ef0565b925050606085013567ffffffffffffffff81111561201c57600080fd5b61202887828801611ec6565b91505092959194509250565b6000806040838503121561204757600080fd5b600061205585828601611e72565b925050602061206685828601611e87565b9150509250929050565b6000806040838503121561208357600080fd5b600061209185828601611e72565b92505060206120a285828601611ef0565b9150509250929050565b6000602082840312156120be57600080fd5b60006120cc84828501611e9c565b91505092915050565b6000602082840312156120e757600080fd5b60006120f584828501611eb1565b91505092915050565b60006020828403121561211057600080fd5b600061211e84828501611ef0565b91505092915050565b6121308161285e565b82525050565b61213f81612870565b82525050565b600061215082612760565b61215a8185612776565b935061216a8185602086016128e1565b61217381612aad565b840191505092915050565b60006121898261276b565b6121938185612787565b93506121a38185602086016128e1565b6121ac81612aad565b840191505092915050565b60006121c28261276b565b6121cc8185612798565b93506121dc8185602086016128e1565b80840191505092915050565b60006121f5602b83612787565b915061220082612abe565b604082019050919050565b6000612218603283612787565b915061222382612b0d565b604082019050919050565b600061223b602583612787565b915061224682612b5c565b604082019050919050565b600061225e601c83612787565b915061226982612bab565b602082019050919050565b6000612281602483612787565b915061228c82612bd4565b604082019050919050565b60006122a4601983612787565b91506122af82612c23565b602082019050919050565b60006122c7602c83612787565b91506122d282612c4c565b604082019050919050565b60006122ea603883612787565b91506122f582612c9b565b604082019050919050565b600061230d602a83612787565b915061231882612cea565b604082019050919050565b6000612330602983612787565b915061233b82612d39565b604082019050919050565b6000612353602083612787565b915061235e82612d88565b602082019050919050565b6000612376602c83612787565b915061238182612db1565b604082019050919050565b6000612399602f83612787565b91506123a482612e00565b604082019050919050565b60006123bc602183612787565b91506123c782612e4f565b604082019050919050565b60006123df603183612787565b91506123ea82612e9e565b604082019050919050565b6000612402602c83612787565b915061240d82612eed565b604082019050919050565b612421816128c8565b82525050565b600061243382856121b7565b915061243f82846121b7565b91508190509392505050565b60006020820190506124606000830184612127565b92915050565b600060808201905061247b6000830187612127565b6124886020830186612127565b6124956040830185612418565b81810360608301526124a78184612145565b905095945050505050565b60006020820190506124c76000830184612136565b92915050565b600060208201905081810360008301526124e7818461217e565b905092915050565b60006020820190508181036000830152612508816121e8565b9050919050565b600060208201905081810360008301526125288161220b565b9050919050565b600060208201905081810360008301526125488161222e565b9050919050565b6000602082019050818103600083015261256881612251565b9050919050565b6000602082019050818103600083015261258881612274565b9050919050565b600060208201905081810360008301526125a881612297565b9050919050565b600060208201905081810360008301526125c8816122ba565b9050919050565b600060208201905081810360008301526125e8816122dd565b9050919050565b6000602082019050818103600083015261260881612300565b9050919050565b6000602082019050818103600083015261262881612323565b9050919050565b6000602082019050818103600083015261264881612346565b9050919050565b6000602082019050818103600083015261266881612369565b9050919050565b600060208201905081810360008301526126888161238c565b9050919050565b600060208201905081810360008301526126a8816123af565b9050919050565b600060208201905081810360008301526126c8816123d2565b9050919050565b600060208201905081810360008301526126e8816123f5565b9050919050565b60006020820190506127046000830184612418565b92915050565b6000612714612725565b90506127208282612946565b919050565b6000604051905090565b600067ffffffffffffffff82111561274a57612749612a7e565b5b61275382612aad565b9050602081019050919050565b600081519050919050565b600081519050919050565b600082825260208201905092915050565b600082825260208201905092915050565b600081905092915050565b60006127ae826128c8565b91506127b9836128c8565b9250827fffffffffffffffffffffffffffffffffffffffffffffffffffffffffffffffff038211156127ee576127ed6129f1565b5b828201905092915050565b6000612804826128c8565b915061280f836128c8565b92508261281f5761281e612a20565b5b828204905092915050565b6000612835826128c8565b9150612840836128c8565b925082821015612853576128526129f1565b5b828203905092915050565b6000612869826128a8565b9050919050565b60008115159050919050565b60007fffffffff0000000000000000000000000000000000000000000000000000000082169050919050565b600073ffffffffffffffffffffffffffffffffffffffff82169050919050565b6000819050919050565b82818337600083830152505050565b60005b838110156128ff5780820151818401526020810190506128e4565b8381111561290e576000848401525b50505050565b6000600282049050600182168061292c57607f821691505b602082108114156129405761293f612a4f565b5b50919050565b61294f82612aad565b810181811067ffffffffffffffff8211171561296e5761296d612a7e565b5b80604052505050565b6000612982826128c8565b91507fffffffffffffffffffffffffffffffffffffffffffffffffffffffffffffffff8214156129b5576129b46129f1565b5b600182019050919050565b60006129cb826128c8565b91506129d6836128c8565b9250826129e6576129e5612a20565b5b828206905092915050565b7f4e487b7100000000000000000000000000000000000000000000000000000000600052601160045260246000fd5b7f4e487b7100000000000000000000000000000000000000000000000000000000600052601260045260246000fd5b7f4e487b7100000000000000000000000000000000000000000000000000000000600052602260045260246000fd5b7f4e487b7100000000000000000000000000000000000000000000000000000000600052604160045260246000fd5b6000601f19601f8301169050919050565b7f455243373231456e756d657261626c653a206f776e657220696e646578206f7560008201527f74206f6620626f756e6473000000000000000000000000000000000000000000602082015250565b7f4552433732313a207472616e7366657220746f206e6f6e20455243373231526560008201527f63656976657220696d706c656d656e7465720000000000000000000000000000602082015250565b7f4552433732313a207472616e736665722066726f6d20696e636f72726563742060008201527f6f776e6572000000000000000000000000000000000000000000000000000000602082015250565b7f4552433732313a20746f6b656e20616c7265616479206d696e74656400000000600082015250565b7f4552433732313a207472616e7366657220746f20746865207a65726f2061646460008201527f7265737300000000000000000000000000000000000000000000000000000000602082015250565b7f4552433732313a20617070726f766520746f2063616c6c657200000000000000600082015250565b7f4552433732313a206f70657261746f7220717565727920666f72206e6f6e657860008201527f697374656e7420746f6b656e0000000000000000000000000000000000000000602082015250565b7f4552433732313a20617070726f76652063616c6c6572206973206e6f74206f7760008201527f6e6572206e6f7220617070726f76656420666f7220616c6c0000000000000000602082015250565b7f4552433732313a2062616c616e636520717565727920666f7220746865207a6560008201527f726f206164647265737300000000000000000000000000000000000000000000602082015250565b7f4552433732313a206f776e657220717565727920666f72206e6f6e657869737460008201527f656e7420746f6b656e0000000000000000000000000000000000000000000000602082015250565b7f4552433732313a206d696e7420746f20746865207a65726f2061646472657373600082015250565b7f4552433732313a20617070726f76656420717565727920666f72206e6f6e657860008201527f697374656e7420746f6b656e0000000000000000000000000000000000000000602082015250565b7f4552433732314d657461646174613a2055524920717565727920666f72206e6f60008201527f6e6578697374656e7420746f6b656e0000000000000000000000000000000000602082015250565b7f4552433732313a20617070726f76616c20746f2063757272656e74206f776e6560008201527f7200000000000000000000000000000000000000000000000000000000000000602082015250565b7f4552433732313a207472616e736665722063616c6c6572206973206e6f74206f60008201527f776e6572206e6f7220617070726f766564000000000000000000000000000000602082015250565b7f455243373231456e756d657261626c653a20676c6f62616c20696e646578206f60008201527f7574206f6620626f756e64730000000000000000000000000000000000000000602082015250565b612f458161285e565b8114612f5057600080fd5b50565b612f5c81612870565b8114612f6757600080fd5b50565b612f738161287c565b8114612f7e57600080fd5b50565b612f8a816128c8565b8114612f9557600080fd5b5056fea264697066735822122027ec1535f66d88393d4e10638b83fcd6b0092fba7ab2aeda17fd01a99fcaf9e764736f6c63430008040033",
  "linkReferences": {},
  "deployedLinkReferences": {}
}