{
  "_format": "hh-sol-artifact-1",
  "contractName": "LeverV1Pool",
  "sourceName": "contracts/LeverV1Pool.sol",
  "abi": [
    {
      "inputs": [
        {
          "internalType": "address",
          "name": "_factory",
          "type": "address"
        },
        {
          "internalType": "address",
          "name": "_marketplace",
          "type": "address"
        },
        {
          "internalType": "address",
          "name": "_oracle",
          "type": "address"
        },
        {
          "internalType": "address",
          "name": "_originalCollection",
          "type": "address"
        },
        {
          "internalType": "uint256",
          "name": "_collateralCoverageRatio",
          "type": "uint256"
        },
        {
          "internalType": "uint256",
          "name": "_interestRate",
          "type": "uint256"
        },
        {
          "internalType": "uint256",
          "name": "_compoundInterval",
          "type": "uint256"
        },
        {
          "internalType": "uint256",
          "name": "_burnRate",
          "type": "uint256"
        },
        {
          "internalType": "uint256",
          "name": "_loanTerm",
          "type": "uint256"
        },
        {
          "internalType": "uint256",
          "name": "_minLiquidity",
          "type": "uint256"
        },
        {
          "internalType": "uint256",
          "name": "_minDeposit",
          "type": "uint256"
        }
      ],
      "stateMutability": "nonpayable",
      "type": "constructor"
    },
    {
      "anonymous": false,
      "inputs": [
        {
          "indexed": false,
          "internalType": "address",
          "name": "borrower",
          "type": "address"
        },
        {
          "indexed": false,
          "internalType": "uint256",
          "name": "value",
          "type": "uint256"
        },
        {
          "indexed": false,
          "internalType": "uint256",
          "name": "tokenId",
          "type": "uint256"
        }
      ],
      "name": "Borrow",
      "type": "event"
    },
    {
      "anonymous": false,
      "inputs": [
        {
          "indexed": false,
          "internalType": "address",
          "name": "borrower",
          "type": "address"
        },
        {
          "indexed": false,
          "internalType": "uint256",
          "name": "value",
          "type": "uint256"
        },
        {
          "indexed": false,
          "internalType": "uint256",
          "name": "tokenId",
          "type": "uint256"
        }
      ],
      "name": "Repay",
      "type": "event"
    },
    {
      "inputs": [
        {
          "internalType": "uint256",
          "name": "",
          "type": "uint256"
        }
      ],
      "name": "activePositions",
      "outputs": [
        {
          "internalType": "uint256",
          "name": "",
          "type": "uint256"
        }
      ],
      "stateMutability": "view",
      "type": "function"
    },
    {
      "inputs": [
        {
          "internalType": "uint256",
          "name": "tokenId",
          "type": "uint256"
        }
      ],
      "name": "borrow",
      "outputs": [],
      "stateMutability": "payable",
      "type": "function"
    },
    {
      "inputs": [],
      "name": "burnRate",
      "outputs": [
        {
          "internalType": "uint256",
          "name": "",
          "type": "uint256"
        }
      ],
      "stateMutability": "view",
      "type": "function"
    },
    {
      "inputs": [],
      "name": "collapse",
      "outputs": [],
      "stateMutability": "nonpayable",
      "type": "function"
    },
    {
      "inputs": [],
      "name": "collateralCoverageRatio",
      "outputs": [
        {
          "internalType": "uint256",
          "name": "",
          "type": "uint256"
        }
      ],
      "stateMutability": "view",
      "type": "function"
    },
    {
      "inputs": [
        {
          "internalType": "uint256",
          "name": "amountRequested",
          "type": "uint256"
        }
      ],
      "name": "collect",
      "outputs": [],
      "stateMutability": "nonpayable",
      "type": "function"
    },
    {
      "inputs": [],
      "name": "compound",
      "outputs": [],
      "stateMutability": "nonpayable",
      "type": "function"
    },
    {
      "inputs": [],
      "name": "compoundInterval",
      "outputs": [
        {
          "internalType": "uint256",
          "name": "",
          "type": "uint256"
        }
      ],
      "stateMutability": "view",
      "type": "function"
    },
    {
      "inputs": [],
      "name": "deposit",
      "outputs": [],
      "stateMutability": "payable",
      "type": "function"
    },
    {
      "inputs": [],
      "name": "factory",
      "outputs": [
        {
          "internalType": "address",
          "name": "",
          "type": "address"
        }
      ],
      "stateMutability": "view",
      "type": "function"
    },
    {
      "inputs": [
        {
          "internalType": "uint256",
          "name": "tokenId",
          "type": "uint256"
        }
      ],
      "name": "getTokenLoanStatus",
      "outputs": [
        {
          "components": [
            {
              "internalType": "uint256",
              "name": "lastCompound",
              "type": "uint256"
            },
            {
              "internalType": "uint256",
              "name": "principal",
              "type": "uint256"
            },
            {
              "internalType": "address",
              "name": "borrower",
              "type": "address"
            },
            {
              "internalType": "uint256",
              "name": "createdTimestamp",
              "type": "uint256"
            },
            {
              "internalType": "uint256",
              "name": "expirationTimestamp",
              "type": "uint256"
            },
            {
              "internalType": "uint256",
              "name": "loanTerm",
              "type": "uint256"
            },
            {
              "internalType": "uint256",
              "name": "finalizedTimestamp",
              "type": "uint256"
            },
            {
              "internalType": "bool",
              "name": "active",
              "type": "bool"
            }
          ],
          "internalType": "struct LeverV1Pool.Loan",
          "name": "",
          "type": "tuple"
        }
      ],
      "stateMutability": "view",
      "type": "function"
    },
    {
      "inputs": [
        {
          "internalType": "address",
          "name": "",
          "type": "address"
        }
      ],
      "name": "holdings",
      "outputs": [
        {
          "internalType": "uint256",
          "name": "",
          "type": "uint256"
        }
      ],
      "stateMutability": "view",
      "type": "function"
    },
    {
      "inputs": [],
      "name": "interestRate",
      "outputs": [
        {
          "internalType": "uint256",
          "name": "",
          "type": "uint256"
        }
      ],
      "stateMutability": "view",
      "type": "function"
    },
    {
      "inputs": [
        {
          "internalType": "uint256",
          "name": "tokenId",
          "type": "uint256"
        },
        {
          "internalType": "uint256",
          "name": "value",
          "type": "uint256"
        }
      ],
      "name": "liquidate",
      "outputs": [],
      "stateMutability": "nonpayable",
      "type": "function"
    },
    {
      "inputs": [],
      "name": "liquidateAll",
      "outputs": [],
      "stateMutability": "nonpayable",
      "type": "function"
    },
    {
      "inputs": [],
      "name": "loanTerm",
      "outputs": [
        {
          "internalType": "uint256",
          "name": "",
          "type": "uint256"
        }
      ],
      "stateMutability": "view",
      "type": "function"
    },
    {
      "inputs": [],
      "name": "marketplace",
      "outputs": [
        {
          "internalType": "address",
          "name": "",
          "type": "address"
        }
      ],
      "stateMutability": "view",
      "type": "function"
    },
    {
      "inputs": [],
      "name": "minDeposit",
      "outputs": [
        {
          "internalType": "uint256",
          "name": "",
          "type": "uint256"
        }
      ],
      "stateMutability": "view",
      "type": "function"
    },
    {
      "inputs": [],
      "name": "minLiquidity",
      "outputs": [
        {
          "internalType": "uint256",
          "name": "",
          "type": "uint256"
        }
      ],
      "stateMutability": "view",
      "type": "function"
    },
    {
      "inputs": [],
      "name": "offer",
      "outputs": [],
      "stateMutability": "nonpayable",
      "type": "function"
    },
    {
      "inputs": [],
      "name": "oracle",
      "outputs": [
        {
          "internalType": "address",
          "name": "",
          "type": "address"
        }
      ],
      "stateMutability": "view",
      "type": "function"
    },
    {
      "inputs": [],
      "name": "originalCollection",
      "outputs": [
        {
          "internalType": "address",
          "name": "",
          "type": "address"
        }
      ],
      "stateMutability": "view",
      "type": "function"
    },
    {
      "inputs": [
        {
          "internalType": "uint256",
          "name": "",
          "type": "uint256"
        }
      ],
      "name": "owners",
      "outputs": [
        {
          "internalType": "address",
          "name": "",
          "type": "address"
        }
      ],
      "stateMutability": "view",
      "type": "function"
    },
    {
      "inputs": [],
      "name": "poolToken",
      "outputs": [
        {
          "internalType": "address",
          "name": "",
          "type": "address"
        }
      ],
      "stateMutability": "view",
      "type": "function"
    },
    {
      "inputs": [
        {
          "internalType": "uint256",
          "name": "",
          "type": "uint256"
        }
      ],
      "name": "positions",
      "outputs": [
        {
          "internalType": "uint256",
          "name": "lastCompound",
          "type": "uint256"
        },
        {
          "internalType": "uint256",
          "name": "principal",
          "type": "uint256"
        },
        {
          "internalType": "address",
          "name": "borrower",
          "type": "address"
        },
        {
          "internalType": "uint256",
          "name": "createdTimestamp",
          "type": "uint256"
        },
        {
          "internalType": "uint256",
          "name": "expirationTimestamp",
          "type": "uint256"
        },
        {
          "internalType": "uint256",
          "name": "loanTerm",
          "type": "uint256"
        },
        {
          "internalType": "uint256",
          "name": "finalizedTimestamp",
          "type": "uint256"
        },
        {
          "internalType": "bool",
          "name": "active",
          "type": "bool"
        }
      ],
      "stateMutability": "view",
      "type": "function"
    },
    {
      "inputs": [
        {
          "internalType": "address",
          "name": "",
          "type": "address"
        }
      ],
      "name": "principals",
      "outputs": [
        {
          "internalType": "uint256",
          "name": "",
          "type": "uint256"
        }
      ],
      "stateMutability": "view",
      "type": "function"
    },
    {
      "inputs": [
        {
          "internalType": "uint256",
          "name": "tokenId",
          "type": "uint256"
        },
        {
          "internalType": "uint256",
          "name": "value",
          "type": "uint256"
        }
      ],
      "name": "quickSell",
      "outputs": [],
      "stateMutability": "nonpayable",
      "type": "function"
    },
    {
      "inputs": [
        {
          "internalType": "uint256",
          "name": "tokenId",
          "type": "uint256"
        }
      ],
      "name": "quickSell",
      "outputs": [],
      "stateMutability": "nonpayable",
      "type": "function"
    },
    {
      "inputs": [
        {
          "internalType": "uint256",
          "name": "tokenId",
          "type": "uint256"
        }
      ],
      "name": "repay",
      "outputs": [],
      "stateMutability": "payable",
      "type": "function"
    },
    {
      "inputs": [],
      "name": "riskIndex",
      "outputs": [
        {
          "internalType": "uint256",
          "name": "",
          "type": "uint256"
        }
      ],
      "stateMutability": "view",
      "type": "function"
    },
    {
      "inputs": [
        {
          "internalType": "address",
          "name": "_oracle",
          "type": "address"
        }
      ],
      "name": "setOracle",
      "outputs": [],
      "stateMutability": "nonpayable",
      "type": "function"
    },
    {
      "inputs": [],
      "name": "treasury",
      "outputs": [
        {
          "internalType": "address",
          "name": "",
          "type": "address"
        }
      ],
      "stateMutability": "view",
      "type": "function"
    },
    {
      "inputs": [],
      "name": "wrappedCollection",
      "outputs": [
        {
          "internalType": "address",
          "name": "",
          "type": "address"
        }
      ],
      "stateMutability": "view",
      "type": "function"
    },
    {
      "stateMutability": "payable",
      "type": "receive"
    }
  ],
  "bytecode": "0x6101406040523480156200001257600080fd5b506040516200a33b3803806200a33b833981810160405281019062000038919062000b33565b6200006c7f99933c98a1fb0147060336ae0551c64dfda4a6fb57051ffc5afe9fd4bf78d50360001b62000a7460201b60201c565b620000a07f0fc99bcc43169874636522fa392b5bbfc2dc4ead2a2fc609854c4139248d39f360001b62000a7460201b60201c565b620000d47fe3689b45fc7ad08353383cba9b27fb2d8794a63adf313a587d5ded32174146a160001b62000a7460201b60201c565b8a73ffffffffffffffffffffffffffffffffffffffff1660808173ffffffffffffffffffffffffffffffffffffffff1660601b815250506200013f7f3477385a7d5ead7b4e2e3c4ab7e30e85fb52252f9ca96d13fd408458d87174e260001b62000a7460201b60201c565b620001737f56944a1bdf743dc6475bb6b3c696212a0963e16b214a996cb8d12d2960aa745960001b62000a7460201b60201c565b8973ffffffffffffffffffffffffffffffffffffffff166101208173ffffffffffffffffffffffffffffffffffffffff1660601b81525050620001df7f953d75ab4a6cef7bdf475fbc12832e53c55ae5c8b9adb6a3298669c23b7f51da60001b62000a7460201b60201c565b620002137f042bc37ee5bdfa69a2b6b6c550b063156482f2241ed99d6c2242d28c268bd31b60001b62000a7460201b60201c565b88600560006101000a81548173ffffffffffffffffffffffffffffffffffffffff021916908373ffffffffffffffffffffffffffffffffffffffff160217905550620002887f534f35693d1ef1e881155f2a88b6926c2ea7d30a2bccf7af9c09a4a2c267d77f60001b62000a7460201b60201c565b620002bc7fdf18a3bb5d8773ce783e93436fb06704ff069f6f46a8e4b68e2ce35a53a5639b60001b62000a7460201b60201c565b8773ffffffffffffffffffffffffffffffffffffffff1660a08173ffffffffffffffffffffffffffffffffffffffff1660601b81525050620003277f85b6227b43cece4ecb6c9df23bd34280f8d903aafd8e12ce8ff183d48ea2e54860001b62000a7460201b60201c565b6200035b7f651468f895a8bd5d621108bb1a1a9b665d8410df2d9046c92c4776243d6d0c7160001b62000a7460201b60201c565b86600681905550620003967f898582fee5c4426d39f47d6e109c5528904b6c3f6af3db0f0af4572dd10542ca60001b62000a7460201b60201c565b620003ca7f77fe94c8a70ce005c405f367feacae559a195958db2ef50c2761d14f81aa795660001b62000a7460201b60201c565b85600781905550620004057f2fd63a10043dfe12ef057160f4ae5a7ab4ee147573ba94a37eaa54a2a60e7a7060001b62000a7460201b60201c565b620004397f416ae7b4970fac86311ba57c6c4689c6ced2f467cbc84bcb15db0a2fc59a55e760001b62000a7460201b60201c565b84600881905550620004747fc8f3ad11cef5d3eb1c5f760cc90cfe05ebba7299168b4cacb6a0811d0b1b904a60001b62000a7460201b60201c565b620004a87ffe344c1bbe7a55d527780a0266bfccc60af62b1c9fa3b31fc98128fcb46f829c60001b62000a7460201b60201c565b83600981905550620004e37ff4864104560e81fa94a1989e198f6802f8eb0a26adf3df45ede4c556fb1d129560001b62000a7460201b60201c565b620005177fd72c9e8665f5f503cf17ce50c70f5538517a6bcd587c795a87a53be0f0174e5e60001b62000a7460201b60201c565b82600a81905550620005527f3703f86458a0e11ee9bddc6f7900c66fb05f0d638bc8ee640f86f45763bc79db60001b62000a7460201b60201c565b620005867f3740f8828005cc0ef5c867b9f06abf51bac7c87932f786a23b241904ca6a5e6060001b62000a7460201b60201c565b81600b81905550620005c17fa9f4674a2cc444299832b2c883eca0637d1bf2d14adc9ad5e21900b26562135660001b62000a7460201b60201c565b620005f57f3a12600bcbd372046106f379c9b55abda446ebec95ee129e775f594916eab61e60001b62000a7460201b60201c565b600c5490506200062e7fb4a42e8e61e30bd94a4e13c63ab4ea1bba4add490da4c4d53fc0e93a503a179360001b62000a7460201b60201c565b620006627f3ccf64637f9ce2338ffca11ee26c2aa70bbfe79d7f3fb37d76d329a538c2f01860001b62000a7460201b60201c565b600073ffffffffffffffffffffffffffffffffffffffff166101008173ffffffffffffffffffffffffffffffffffffffff1660601b81525050620006cf7f07a66062a9fd0192794df6547ea1ecea4611c2fcf173d77a0de0ba5e8ae2dfd760001b62000a7460201b60201c565b620007037fab918bf5a11d8cf8e26b58678b312a4b33dd4f62c1ed5c69c76c595378e67a9460001b62000a7460201b60201c565b60008890506200073c7f0e970d5e89710633f3b1206c93794498e3adb1de27dbeb8ae444bb7935ef24a360001b62000a7460201b60201c565b620007707f5e16b94ea58b4510da774104aaa58c5e943842d14535c3989b46ac6f7d22573260001b62000a7460201b60201c565b60008173ffffffffffffffffffffffffffffffffffffffff166306fdde036040518163ffffffff1660e01b815260040160006040518083038186803b158015620007b957600080fd5b505afa158015620007ce573d6000803e3d6000fd5b505050506040513d6000823e3d601f19601f82011682018060405250810190620007f9919062000c3a565b6040516020016200080b919062000d7c565b6040516020818303038152906040529050620008507fc4525c6495c8ceac11e55267b96c1ce0a101c383e3d1d57c99332357fcd47b7e60001b62000a7460201b60201c565b620008847f6b387593e32a1a12ee95b8f7dad40d8deadf5c5aee10ab53c1dee8e18baaa85860001b62000a7460201b60201c565b60008160405160200162000899919062000d56565b6040516020818303038152906040529050620008de7fb7f237093770029e02d013ec4f87488370d9897d53da765a8c3dfda0bd0cf3ba60001b62000a7460201b60201c565b620009127f90039bd875af4ba86ec2f00b2907d9f745a6921f41778230dcd135ab8e50c12460001b62000a7460201b60201c565b808130604051620009239062000a77565b620009319392919062000da2565b604051809103906000f0801580156200094e573d6000803e3d6000fd5b5073ffffffffffffffffffffffffffffffffffffffff1660c08173ffffffffffffffffffffffffffffffffffffffff1660601b81525050620009b97fd69bf03df8b170245673be5c018f1059a61ccdf9a30255efeb6219088b3ee76760001b62000a7460201b60201c565b620009ed7fdd2cf5266601e0a9b7ac565b91e514905b12a55a8e295a3124b20984729dde1f60001b62000a7460201b60201c565b818230604051620009fe9062000a85565b62000a0c9392919062000da2565b604051809103906000f08015801562000a29573d6000803e3d6000fd5b5073ffffffffffffffffffffffffffffffffffffffff1660e08173ffffffffffffffffffffffffffffffffffffffff1660601b81525050505050505050505050505050505062000fe3565b50565b612a93806200549783390190565b6124118062007f2a83390190565b600062000aaa62000aa48462000e16565b62000ded565b90508281526020810184848401111562000ac357600080fd5b62000ad084828562000eb1565b509392505050565b60008151905062000ae98162000faf565b92915050565b600082601f83011262000b0157600080fd5b815162000b1384826020860162000a93565b91505092915050565b60008151905062000b2d8162000fc9565b92915050565b60008060008060008060008060008060006101608c8e03121562000b5657600080fd5b600062000b668e828f0162000ad8565b9b5050602062000b798e828f0162000ad8565b9a5050604062000b8c8e828f0162000ad8565b995050606062000b9f8e828f0162000ad8565b985050608062000bb28e828f0162000b1c565b97505060a062000bc58e828f0162000b1c565b96505060c062000bd88e828f0162000b1c565b95505060e062000beb8e828f0162000b1c565b94505061010062000bff8e828f0162000b1c565b93505061012062000c138e828f0162000b1c565b92505061014062000c278e828f0162000b1c565b9150509295989b509295989b9093969950565b60006020828403121562000c4d57600080fd5b600082015167ffffffffffffffff81111562000c6857600080fd5b62000c768482850162000aef565b91505092915050565b62000c8a8162000e73565b82525050565b600062000c9d8262000e4c565b62000ca9818562000e57565b935062000cbb81856020860162000eb1565b62000cc68162000f4c565b840191505092915050565b600062000cde8262000e4c565b62000cea818562000e68565b935062000cfc81856020860162000eb1565b80840191505092915050565b600062000d1760048362000e68565b915062000d248262000f5d565b600482019050919050565b600062000d3e60078362000e68565b915062000d4b8262000f86565b600782019050919050565b600062000d64828462000cd1565b915062000d718262000d08565b915081905092915050565b600062000d8a828462000cd1565b915062000d978262000d2f565b915081905092915050565b6000606082019050818103600083015262000dbe818662000c90565b9050818103602083015262000dd4818562000c90565b905062000de5604083018462000c7f565b949350505050565b600062000df962000e0c565b905062000e07828262000ee7565b919050565b6000604051905090565b600067ffffffffffffffff82111562000e345762000e3362000f1d565b5b62000e3f8262000f4c565b9050602081019050919050565b600081519050919050565b600082825260208201905092915050565b600081905092915050565b600062000e808262000e87565b9050919050565b600073ffffffffffffffffffffffffffffffffffffffff82169050919050565b6000819050919050565b60005b8381101562000ed157808201518184015260208101905062000eb4565b8381111562000ee1576000848401525b50505050565b62000ef28262000f4c565b810181811067ffffffffffffffff8211171562000f145762000f1362000f1d565b5b80604052505050565b7f4e487b7100000000000000000000000000000000000000000000000000000000600052604160045260246000fd5b6000601f19601f8301169050919050565b7f2d4e465400000000000000000000000000000000000000000000000000000000600082015250565b7f2d4c502d4c464900000000000000000000000000000000000000000000000000600082015250565b62000fba8162000e73565b811462000fc657600080fd5b50565b62000fd48162000ea7565b811462000fe057600080fd5b50565b60805160601c60a05160601c60c05160601c60e05160601c6101005160601c6101205160601c6144216200107660003960008181611a0e01528181611d4d01526120290152600061167d0152600081816126540152818161275b0152612fb8015260008181610fd6015281816122ff01526135ae01526000818161105301526116a101526000611a6601526144216000f3fe6080604052600436106101f25760003560e01c80637dc0d1d01161010d578063c45a0155116100a0578063d0e30db01161006f578063d0e30db0146106b1578063d296d1f1146106bb578063dd3ced63146106e4578063efd3b24714610721578063f69e20461461074c576101f9565b8063c45a015514610616578063c5ebeaec14610641578063cbdf382c1461065d578063ce3f865f14610688576101f9565b8063a42629db116100dc578063a42629db1461057e578063abc8c7af146105a9578063bed99850146105d4578063c028df06146105ff576101f9565b80637dc0d1d0146104a757806387a282da146104d257806399fbab881461050f5780639be3c66014610553576101f9565b806343d5b06011610185578063691a7f0211610154578063691a7f02146103ff57806376fbc359146104165780637adbf973146104535780637c3a00fd1461047c576101f9565b806343d5b0601461035757806361d027b31461038057806361dd277e146103ab57806363c2710d146103d6576101f9565b806335abf771116101c157806335abf771146102ce578063371fd8e6146102f95780633c2066a91461031557806341b3d1851461032c576101f9565b8063025e7c27146101fe5780630654dc9a1461023b578063252cf2d2146102785780633577d94e146102a3576101f9565b366101f957005b600080fd5b34801561020a57600080fd5b50610225600480360381019061022091906137c9565b610763565b6040516102329190613ba8565b60405180910390f35b34801561024757600080fd5b50610262600480360381019061025d91906137c9565b610796565b60405161026f9190613e1f565b60405180910390f35b34801561028457600080fd5b5061028d6107ba565b60405161029a9190613e1f565b60405180910390f35b3480156102af57600080fd5b506102b86107c0565b6040516102c59190613e1f565b60405180910390f35b3480156102da57600080fd5b506102e36107c6565b6040516102f09190613e1f565b60405180910390f35b610313600480360381019061030e91906137c9565b6107cc565b005b34801561032157600080fd5b5061032a611617565b005b34801561033857600080fd5b50610341611645565b60405161034e9190613e1f565b60405180910390f35b34801561036357600080fd5b5061037e6004803603810190610379919061381b565b61164b565b005b34801561038c57600080fd5b5061039561167b565b6040516103a29190613ba8565b60405180910390f35b3480156103b757600080fd5b506103c061169f565b6040516103cd9190613ba8565b60405180910390f35b3480156103e257600080fd5b506103fd60048036038101906103f891906137c9565b6116c3565b005b34801561040b57600080fd5b506104146116f2565b005b34801561042257600080fd5b5061043d60048036038101906104389190613777565b611720565b60405161044a9190613e1f565b60405180910390f35b34801561045f57600080fd5b5061047a60048036038101906104759190613777565b611738565b005b34801561048857600080fd5b50610491611800565b60405161049e9190613e1f565b60405180910390f35b3480156104b357600080fd5b506104bc611806565b6040516104c99190613ba8565b60405180910390f35b3480156104de57600080fd5b506104f960048036038101906104f491906137c9565b61182c565b6040516105069190613e03565b60405180910390f35b34801561051b57600080fd5b50610536600480360381019061053191906137c9565b61198b565b60405161054a989796959493929190613e3a565b60405180910390f35b34801561055f57600080fd5b50610568611a00565b6040516105759190613e1f565b60405180910390f35b34801561058a57600080fd5b50610593611a06565b6040516105a09190613e1f565b60405180910390f35b3480156105b557600080fd5b506105be611a0c565b6040516105cb9190613ba8565b60405180910390f35b3480156105e057600080fd5b506105e9611a30565b6040516105f69190613e1f565b60405180910390f35b34801561060b57600080fd5b50610614611a36565b005b34801561062257600080fd5b5061062b611a64565b6040516106389190613ba8565b60405180910390f35b61065b600480360381019061065691906137c9565b611a88565b005b34801561066957600080fd5b50610672612652565b60405161067f9190613ba8565b60405180910390f35b34801561069457600080fd5b506106af60048036038101906106aa91906137c9565b612676565b005b6106b9612e3b565b005b3480156106c757600080fd5b506106e260048036038101906106dd919061381b565b613564565b005b3480156106f057600080fd5b5061070b60048036038101906107069190613777565b613594565b6040516107189190613e1f565b60405180910390f35b34801561072d57600080fd5b506107366135ac565b6040516107439190613ba8565b60405180910390f35b34801561075857600080fd5b506107616135d0565b005b60036020528060005260406000206000915054906101000a900473ffffffffffffffffffffffffffffffffffffffff1681565b600481815481106107a657600080fd5b906000526020600020016000915090505481565b600b5481565b600a5481565b60085481565b6107f87fe6a1377ead9b8c9c95dfaca485eab77f3961e75e18cfb38fcbc87bf2473cfa6360001b6135fe565b6108247f73ed1228299ef928379539803b5e266b6bf72a0f3298cf3a4475ce141392d6be60001b6135fe565b6108507fd04e0e64a2d43dabdbf75aa84af4043e68888e10e461e9c1aa4a90476b89541460001b6135fe565b6000600260008381526020019081526020016000206040518061010001604052908160008201548152602001600182015481526020016002820160009054906101000a900473ffffffffffffffffffffffffffffffffffffffff1673ffffffffffffffffffffffffffffffffffffffff1673ffffffffffffffffffffffffffffffffffffffff168152602001600382015481526020016004820154815260200160058201548152602001600682015481526020016007820160009054906101000a900460ff161515151581525050905061094c7f68861bed72c3aad6a5bde808f128df68237a15fb6c11e9881f016b09070539a060001b6135fe565b6109787f65a8099d8b89e74acd37feaef1468ec83fa7bc4575a0ebf043726ff666ee394060001b6135fe565b6109a47faf6baaf97900fada15b4d2fc4a2aa202fd7e94c72477e207f797a06b1a81b6f560001b6135fe565b600115158160e001511515146109ef576040517f08c379a00000000000000000000000000000000000000000000000000000000081526004016109e690613c63565b60405180910390fd5b610a1b7f186c9090a712e728d55f120e4e16ec832c8de3485cb403a06a784f5eccdb746960001b6135fe565b610a477f9eea961db806cc7191bdd0a0760d7fd869ae4f6046ad8a447b0aca7960c64bf960001b6135fe565b610a737f84f670a62fd5525167c76f23c73626bedb4263e8dbeaacc63130fe289c9de4ed60001b6135fe565b610a9f7fb96f5e998b2bfa82374b070e32c0575520db04b349c0a28e5fd4914fe4cafc0360001b6135fe565b6000816020015111610ae6576040517f08c379a0000000000000000000000000000000000000000000000000000000008152600401610add90613d03565b60405180910390fd5b610b127f93eb4c0c6f19d71b9df2298d6d5f94d2f920e73ea2a6af1fdbbee8928ea2398c60001b6135fe565b610b3e7f30a1d14b9ac39a6f3f26d749551314a057561420e2cbe9d363927374e741a98160001b6135fe565b610b6a7fca729505927b3bca8d610fef830edee52e30f1406fb256d04bc5e73999097c0760001b6135fe565b610b967fac16ae5a1798ac0534b0720cf018db059f6d5955aa566c5fdacd19dc497dc3dc60001b6135fe565b42816080015110610bdc576040517f08c379a0000000000000000000000000000000000000000000000000000000008152600401610bd390613c83565b60405180910390fd5b610c087fa926f247f17dce832397b113257ab0e40f24ee7e9398d242dcec9cc0e2d1f01660001b6135fe565b610c347fa9e92786cbc0c84233f9a1fc57b4d8fd01772580d1495fdeef08cca495ce033360001b6135fe565b610c607f28d3b111095c037120c5b6a4d3b33a621263b81f7890e6f14a71e0fd950d224d60001b6135fe565b610c8c7f5efa46e64f0dab34adac4e2a524bfb68691d4311efd21140dc69b82494c46d3760001b6135fe565b3373ffffffffffffffffffffffffffffffffffffffff16816040015173ffffffffffffffffffffffffffffffffffffffff1614610cfe576040517f08c379a0000000000000000000000000000000000000000000000000000000008152600401610cf590613c23565b60405180910390fd5b610d2a7ff3d54e8455e6222e7f15b7463ca705eb260d099a9909c11e7cc266776d0157cf60001b6135fe565b610d567f1073b6bdcc22ba63e43853f815de311d1d1e7ef69ea61fbd9acc2d65f970706160001b6135fe565b610d827f71466b6d7536d3f28ce65a3bef41d0e0e6d285270d8b711d1db490fc8b1fef6660001b6135fe565b6000816000015142610d949190613fc0565b9050610dc27fa71a3b0e087f1fc5679787e2b694dbe77492a161e26d580180a526730bdf0a8960001b6135fe565b610dee7fd2bbed7ee6a7b1c680f3583238e5de47fe9a535eb84f1f3fbf1647a58f4c819b60001b6135fe565b610e1a7fc299c892574b5ba38c3ba252d11aa7eb81a2c56a2c2b4ce86ab542e73a9483ac60001b6135fe565b6008548110610e5e576040517f08c379a0000000000000000000000000000000000000000000000000000000008152600401610e5590613d83565b60405180910390fd5b610e8a7fdd0aaed6526397cd1478fda78aedcf25d4f46a98319bc779cf3e4689f37caf9360001b6135fe565b610eb67f5ddd3145b91a9355af1ccbafbe114d32ca6dab7b6ff2343a2937088fcc05d80b60001b6135fe565b610ee27fd3c6a7b3c241102cc0c19c2f1efb65542c6586127b04dc0f0452b8d9fa0a1e8860001b6135fe565b6000610eed83613601565b9050610f1b7f2fbfd6a84aca86fbbd58dfb1feedc2b374580373b435dcc0dcad1c043a4e029d60001b6135fe565b610f477f6c47cb8f894e8095723c79821c2879d57a38b6e62352e18217597d7a12e9b69460001b6135fe565b8034106113ff57610f7a7f101147710075e3ff9d8ae38c0b36c305773c79ba069f7bdb70d0a75532b1a2fb60001b6135fe565b610fa67fe874a699cd91ac9520b08bec1a9a47dd4f6ff5eaaefa1e1d2f8ad24a827a2fd160001b6135fe565b610fd27f89b334cd6cf26b84063d9601d5745e26fbf248e3291946c5f7b7b2ddea4c526760001b6135fe565b60007f000000000000000000000000000000000000000000000000000000000000000090506110237f096c7b9bffd15c9283b557706afb87b9ba81821728d5f695bebb7a4f7a02be5a60001b6135fe565b61104f7f023f580be6ee065084fc9ccf14aab9061c2f8e4a7a3ae8d90111c82c18ad54e360001b6135fe565b60007f000000000000000000000000000000000000000000000000000000000000000090506110a07f54c2e6dd753d002c99facd56fcb128d6e0d224fc8117718890ba3ed404123e5e60001b6135fe565b6110cc7f4dbde17f15271ec7af5802b04bd5b2191f9c5b29e0452f1214f1e770f4ec9fda60001b6135fe565b60008560200181815250506111037fe9ad8277117af787ea534c32261a9960320d52b64d3b5b5865d211ef59d30d4d60001b6135fe565b61112f7f1e86ef8a477bca49e382948f759d029d16d16335df357b05008a0af3e946608d60001b6135fe565b428560c00181815250506111657f2d610a1a9ba0ff0c7408415810d4f2d3206cea9c9a468f7b83a8ac00557ccc4e60001b6135fe565b6111917fe9c23b219206f528ad73224f8e9fb8ec7a7129976512b44b834472176b91960660001b6135fe565b60008560e00190151590811515815250506111ce7ff4989f7c8eeae5481d6d435592cf276c7356b38e3a910d3a2047f4fc69a7a4f160001b6135fe565b6111fa7f50746fcccdf5197c45f015a8639804ce6c98134ef97950936dfa7495269e66f360001b6135fe565b60006003600088815260200190815260200160002060006101000a81548173ffffffffffffffffffffffffffffffffffffffff021916908373ffffffffffffffffffffffffffffffffffffffff1602179055506112797f9ac951f7ab8de8353173aac9d1b0266e3fdfe7c5607bf11d6f45e56396f4b0a160001b6135fe565b6112a57f29dd7b7f828ee8d116e0aacc26d657c0bea8dbbf9a624199683a05412d4112fe60001b6135fe565b8173ffffffffffffffffffffffffffffffffffffffff166342966c68876040518263ffffffff1660e01b81526004016112de9190613e1f565b602060405180830381600087803b1580156112f857600080fd5b505af115801561130c573d6000803e3d6000fd5b505050506040513d601f19601f8201168201806040525081019061133091906137a0565b5061135d7f1d8ef0a895cc655314d44ff1e6b62d6ca1d05b33f3f41b7eb1fc545c9adaf1c860001b6135fe565b6113897f228b187ad1705117cfc8a2069bad53abcb4e05c1e31ae1ff5beb844bfa81d83460001b6135fe565b8073ffffffffffffffffffffffffffffffffffffffff166323b872dd3033896040518463ffffffff1660e01b81526004016113c693929190613bc3565b600060405180830381600087803b1580156113e057600080fd5b505af11580156113f4573d6000803e3d6000fd5b50505050505061149d565b61142b7f1ed72b81291b40e4d63b09657fc857207a257f57a7ecb2ab80ad5d25273f3ddb60001b6135fe565b6114577f273a865deede2314127cfb25f693f432e5e177713269d67e9f009573cab484e160001b6135fe565b6114837fa8a47744311a6404ab5012d6f8e89e5f3fc626982af5661baa216048efa31c7760001b6135fe565b3483602001516114939190613fc0565b8360200181815250505b6114c97f57c172ecdee72d95f76827504cfa71c1cf63813ef28497613965b366bad1569660001b6135fe565b6114f57f5a5bae903ca8684d166129caf274c226b755e35944b3b061d34ecaab2cda215260001b6135fe565b4283600001818152505061152b7f61609f555db04d286acfd8a6ac0c57eb0a2a75958cce7dd04f8d19c8b1e7045a60001b6135fe565b6115577f537a69a4b440baa69e30e5f299b1c26aeeb372364c259d1769464707f08b0cd960001b6135fe565b8260026000868152602001908152602001600020600082015181600001556020820151816001015560408201518160020160006101000a81548173ffffffffffffffffffffffffffffffffffffffff021916908373ffffffffffffffffffffffffffffffffffffffff160217905550606082015181600301556080820151816004015560a0820151816005015560c0820151816006015560e08201518160070160006101000a81548160ff02191690831515021790555090505050505050565b6116437f1567262ceec9ba6b645e703f78c10109adad3a1ea319bf79c29bafec222d01d360001b6135fe565b565b600c5481565b6116777f3097cdcd6c2d53cbdfbe9157669720733e1eab02ab9bc312cab87139f6ad420360001b6135fe565b5050565b7f000000000000000000000000000000000000000000000000000000000000000081565b7f000000000000000000000000000000000000000000000000000000000000000081565b6116ef7f1a0d8c901bfd585259600debd4b1e62126feeb1d72c8cba6b05477180041e75460001b6135fe565b50565b61171e7f45ce73cc219c35e0a15a69f42b05b7184da76c1c41004fa0acca08a3ca529abe60001b6135fe565b565b60016020528060005260406000206000915090505481565b6117647fb8e4ece44f90e32743d0ea17a6b20a36584ba2bea60c24ba097f4ac08c0eff0960001b6135fe565b6117907f9d2db6a2d6729e4a3d11302b6d88b0031ad0b2adbab04ea72269e4a244e81bc660001b6135fe565b6117bc7f142bba1e44bd113141a51fefd175de139327e2b6c04791807527604e6d5b0aaa60001b6135fe565b80600560006101000a81548173ffffffffffffffffffffffffffffffffffffffff021916908373ffffffffffffffffffffffffffffffffffffffff16021790555050565b60075481565b600560009054906101000a900473ffffffffffffffffffffffffffffffffffffffff1681565b6118346136c6565b6118607feba3e01faea26ca017580b5e5b5fc1f3e4e98daa7a57f75137fa20877fd8800560001b6135fe565b61188c7f6621505b2c843af08de8583c89ee0d5db293fc01d9c6b3e03312ee3b9d1673f160001b6135fe565b6118b87f502ca58c01b8b9336f896559495d23101964a793f92b7eb9f6896dc8b0f5657960001b6135fe565b600260008381526020019081526020016000206040518061010001604052908160008201548152602001600182015481526020016002820160009054906101000a900473ffffffffffffffffffffffffffffffffffffffff1673ffffffffffffffffffffffffffffffffffffffff1673ffffffffffffffffffffffffffffffffffffffff168152602001600382015481526020016004820154815260200160058201548152602001600682015481526020016007820160009054906101000a900460ff1615151515815250509050919050565b60026020528060005260406000206000915090508060000154908060010154908060020160009054906101000a900473ffffffffffffffffffffffffffffffffffffffff16908060030154908060040154908060050154908060060154908060070160009054906101000a900460ff16905088565b60065481565b600d5481565b7f000000000000000000000000000000000000000000000000000000000000000081565b60095481565b611a627fd0c14496f5d3df072f4a088e988c99c9db48dbed220be75b53a511d4cb64fd3960001b6135fe565b565b7f000000000000000000000000000000000000000000000000000000000000000081565b611ab47f8a5252cc9aa153690234b26272890a53d6117c2f43d1222065f92f41cf4a778c60001b6135fe565b611ae07fbf929158909c8129a2d387517fd67bcad862e9491fa601b0bbcc52c3802fc90a60001b6135fe565b611b0c7fb91c3c1c2b4177931a9f9ab2474a5764dfc6e8fdf7450ca4ee323a576f6638bd60001b6135fe565b611b387f5a87e5e80fcabb485320a5bfb6b39dcdfc1fb22832b771d2641f4c3abe48c14260001b6135fe565b600015156002600083815260200190815260200160002060070160009054906101000a900460ff161515148015611b85575060006002600083815260200190815260200160002060010154145b611bc4576040517f08c379a0000000000000000000000000000000000000000000000000000000008152600401611bbb90613cc3565b60405180910390fd5b611bf07f7a28320ec48f171368902925df7cd75ef6f1e3e9c248be12ecc6946deeccbc8460001b6135fe565b611c1c7f087844d6440939ca9af93ef4e5f8bbe84ae7c7954647489a69f18c2ae30d980560001b6135fe565b611c487fe2bbdc7a3a15c13604cb7c989d27a84a6358641ea4e56b84e2699f0beb33f58660001b6135fe565b611c747f936b0c821d51ed8843564c2a90f0d8e6e6dc9ef8744fbdb775f5dd84a18c5ab960001b6135fe565b600b543447611c839190613fc0565b1015611cc4576040517f08c379a0000000000000000000000000000000000000000000000000000000008152600401611cbb90613d43565b60405180910390fd5b611cf07fd299249b9f8112784e03c6e6be927a9fd4d535e9ffd28c9ad004cb1ac958f93b60001b6135fe565b611d1c7f7ca46a03cae210ed80c91ca9e27aa2fe54f90c52cf9f74c66507c9dee8c6624860001b6135fe565b611d487f9d5d7477d366586c83f49a8ac71e406fff517f3d211abc7e2e4fe27f1de50f0060001b6135fe565b6000807f000000000000000000000000000000000000000000000000000000000000000073ffffffffffffffffffffffffffffffffffffffff1663107a274a60e01b84604051602401611d9b9190613e1f565b604051602081830303815290604052907bffffffffffffffffffffffffffffffffffffffffffffffffffffffff19166020820180517bffffffffffffffffffffffffffffffffffffffffffffffffffffffff8381831617835250505050604051611e059190613b91565b600060405180830381855afa9150503d8060008114611e40576040519150601f19603f3d011682016040523d82523d6000602084013e611e45565b606091505b5091509150611e767fb3af4d77ba9f5eca036e68cb1490fbafce6d8258c592ee972eabbba857fdd44660001b6135fe565b611ea27f28dca42a1a2d033341ea9896cd50d05557050baa9c37b45f57041d5df67e4ac560001b6135fe565b600081806020019051810190611eb891906137f2565b9050611ee67ff18f108b908c17b33cefd69c35fd797f128210dae8cffe6031618fb9896145ab60001b6135fe565b611f127f8d126640ed6af2f0b45eb34e10859eb7773548eaa221c6737dd5fc37c440fcd960001b6135fe565b611f3e7ff696bba360ac1f7fdde8c8576fe8285e1730d46562a68b6e6d6ea0051a99c92960001b6135fe565b60065481670de0b6b3a764000034611f569190613f66565b611f609190613f35565b11611fa0576040517f08c379a0000000000000000000000000000000000000000000000000000000008152600401611f9790613ca3565b60405180910390fd5b611fcc7f1c9a6b2b21b0d2990a67d6ba7adf5ced50660af4ceb44bb82764d352e7b6a18f60001b6135fe565b611ff87f0338e62d601c4409baf3ea3578835b83d0d7afc1c00c6aef58a519dd9b10fa4b60001b6135fe565b6120247fbd948a5964ed06f7f3f3c460be2a1dfacdb2c2a5558962926daf1917e67c1e8860001b6135fe565b6000807f000000000000000000000000000000000000000000000000000000000000000073ffffffffffffffffffffffffffffffffffffffff168363efef39a160e01b886040516024016120789190613e1f565b604051602081830303815290604052907bffffffffffffffffffffffffffffffffffffffffffffffffffffffff19166020820180517bffffffffffffffffffffffffffffffffffffffffffffffffffffffff83818316178352505050506040516120e29190613b91565b60006040518083038185875af1925050503d806000811461211f576040519150601f19603f3d011682016040523d82523d6000602084013e612124565b606091505b50915091506121557f45498508106c62fde224f3e9ec43d433ac117eea87c7cecab26037cc10a77b4460001b6135fe565b6121817ffedf9b669f4b8865b049cc3bc00c66852b3e7add7215568e999d642c162bfd2160001b6135fe565b6121ad7f2cbf77f2d90bacce7cd3ccba5c1a1676ebc87c4cefca308adeaa254e6f4f560360001b6135fe565b816121ed576040517f08c379a00000000000000000000000000000000000000000000000000000000081526004016121e490613dc3565b60405180910390fd5b6122197fef09a51594a795904a8a56f75409a745c1f7a5b3f28559c9a2cd173f62d0e4b160001b6135fe565b6122457f7a1ec8de2caf9e74049e314d0107805a2c5ea9acfcb4b49caba1ec3216ae7d7460001b6135fe565b6122717f212599afc415d4602852eac3c0ff2ba275c5020ad885d7f5628d4583e2ce446c60001b6135fe565b811561258b576122a37f1c857e2120c8976fa0173afa0ebae085350cfc9c51e20cc116c25476b148499f60001b6135fe565b6122cf7f3cd38d7395f27a07895f62b8eb0b59067dd7e41e5c0c1e2846112fabab3959d160001b6135fe565b6122fb7f7e1b27cae045ea4094fb2415aa84c0bb81615db68ca405fd9646fb2782f92ac660001b6135fe565b60007f0000000000000000000000000000000000000000000000000000000000000000905061234c7fdf11563d323eae7dc93a622dbd17d8c9a88a775106524b70d9fada530f4b765260001b6135fe565b6123787f4b446d7dd97e1875b0b79f15954ae1266ce589b8b3bae9fd3806d44c955660bd60001b6135fe565b60405180610100016040528042815260200134866123969190613fc0565b81526020013373ffffffffffffffffffffffffffffffffffffffff168152602001428152602001600a54426123cb9190613edf565b8152602001600a548152602001600081526020016001151581525060026000898152602001908152602001600020600082015181600001556020820151816001015560408201518160020160006101000a81548173ffffffffffffffffffffffffffffffffffffffff021916908373ffffffffffffffffffffffffffffffffffffffff160217905550606082015181600301556080820151816004015560a0820151816005015560c0820151816006015560e08201518160070160006101000a81548160ff0219169083151502179055509050506124cb7fd8ed92b62c28172327fc229f65d9227e52699c3fb617b5a412261c4ae45099cc60001b6135fe565b6124f77fe50abf8c0829d2e99064a275a9a084dc12fd1ab24e41fc371d588f573d56274060001b6135fe565b8073ffffffffffffffffffffffffffffffffffffffff166340c10f1933896040518363ffffffff1660e01b8152600401612532929190613bfa565b602060405180830381600087803b15801561254c57600080fd5b505af1158015612560573d6000803e3d6000fd5b505050506040513d601f19601f8201168201806040525081019061258491906137a0565b505061264a565b6125b77feba07c163ac5aff7fd78cf665dbd54c622be65a14a78b519342b04cf9cda0ef160001b6135fe565b6125e37fde922663e6f0886f9def45a098da540b612a0740dce86da243486c4e4a297fe760001b6135fe565b61260f7f4685d59a3b28b34655d981437e9d7bbcb82308b04ad6f03c549a21d2dd56717360001b6135fe565b6040517f08c379a000000000000000000000000000000000000000000000000000000000815260040161264190613d23565b60405180910390fd5b505050505050565b7f000000000000000000000000000000000000000000000000000000000000000081565b6126a27f1e421d9986d54c494db0496f141230edd78f3e974baae9943e9fab02d6e0555a60001b6135fe565b6126ce7f53c28e5a385ac9fd54d341c37627a25112dd7f55606b4475e1d27513bd5bca9b60001b6135fe565b6126fa7fa5ce2c4a36da1961c64d93392382cbc1e8cb4f876e83ecc017367e8b5a785c8560001b6135fe565b600047905061272b7f60a012b927bf391ec387dc355c63ce9ff4c3876267adf19e81022e802516159660001b6135fe565b6127577f7fdadca1ddabdc4828b5f3a68c1d9dd3bc2cd1ebf3c7cdba536e031a9f0c3e5d60001b6135fe565b60007f000000000000000000000000000000000000000000000000000000000000000090506127a87fb97baec9fcabd9346888cb85a45132d21093db4ea96c6a491646786f6776c6fb60001b6135fe565b6127d47f901dbc8fc3f37778f4146a90d125749a774db4d39dce3c45c5ec27147800091e60001b6135fe565b60008173ffffffffffffffffffffffffffffffffffffffff166370a08231336040518263ffffffff1660e01b815260040161280f9190613ba8565b60206040518083038186803b15801561282757600080fd5b505afa15801561283b573d6000803e3d6000fd5b505050506040513d601f19601f8201168201806040525081019061285f91906137f2565b905061288d7fa11bba8078082e400a5346291b7befb4023ca8fbb677c86bce6b6cb233577cea60001b6135fe565b6128b97f9fac467c8737631594a9f002286bbbee5cbadbb5655ac37605bf006b4387e1d160001b6135fe565b6128e57f752b7ff84ff3e2f19b2196e7660bf521479a177a5e0cc9e94632d35d5c271df460001b6135fe565b83811015612928576040517f08c379a000000000000000000000000000000000000000000000000000000000815260040161291f90613d63565b60405180910390fd5b6129547f03916e90f2de25bb7b10ca1651617dc1cb1676f64a239fea1c6c6f5887ea5d6660001b6135fe565b6129807f464a1343c1a1580af5ca3a365477a974eafb655e747a260c977255a6f4978b9e60001b6135fe565b6129ac7f357e7726ff779784c30e90f4056b0124c16510ebcd030232a652d0748c71c1fc60001b6135fe565b60008273ffffffffffffffffffffffffffffffffffffffff166318160ddd6040518163ffffffff1660e01b815260040160206040518083038186803b1580156129f457600080fd5b505afa158015612a08573d6000803e3d6000fd5b505050506040513d601f19601f82011682018060405250810190612a2c91906137f2565b9050612a5a7f706056efd99009b80769b2268033b8adf7c051e5cba75a72cbf1b14c964712c860001b6135fe565b612a867f09b8411085ab3e47e71022fd92dd579f886500fcc2e98a930ebca26481ba4b9e60001b6135fe565b6000670de0b6b3a76400008583670de0b6b3a764000089612aa79190613f66565b612ab19190613f35565b612abb9190613f66565b612ac59190613f35565b9050612af37fc1aeb628d70568e954f1441cdddf431fc5f8e2839361a6f5e87e844e9530abaa60001b6135fe565b612b1f7f91a4493db443bc07ce355f718d49fd1ba8e3ef7dab8298e20507e6bc7333248f60001b6135fe565b612b4b7fb760a9289fffae5d78c14953978869027aff34a1cc496c98769eacf64673897260001b6135fe565b80851015612b8e576040517f08c379a0000000000000000000000000000000000000000000000000000000008152600401612b8590613de3565b60405180910390fd5b612bba7fe62c0dda6307e9ef9b12808d421c327a13cef4f1f067ed2aaba6fb6d56f7d76560001b6135fe565b612be67f37a14f25ef7f7b6fa5c74ddc9a455b3f0083c3499ca567bc2230a4a0e0cf942260001b6135fe565b612c127f90b377b391b4149cc652c650c645ba65cd6077d899f71f9ce4dec00ae9b24d4960001b6135fe565b60008473ffffffffffffffffffffffffffffffffffffffff166379cc679033896040518363ffffffff1660e01b8152600401612c4f929190613bfa565b602060405180830381600087803b158015612c6957600080fd5b505af1158015612c7d573d6000803e3d6000fd5b505050506040513d601f19601f82011682018060405250810190612ca191906137a0565b9050612ccf7fa28fdccc42a3d1cbdd5873c6bedca212907850a789adb00013cdf2cdb5cab1c760001b6135fe565b612cfb7f2118c8b52e2bcdcc385c6b86cae64578bad1c68dde318427749ca70e81ec4f0f60001b6135fe565b612d277fd9a9a9592045302c36fda086e66a656547fc689967cbe35b32b7b6330693d90160001b6135fe565b80612d67576040517f08c379a0000000000000000000000000000000000000000000000000000000008152600401612d5e90613da3565b60405180910390fd5b612d937f1bc9aa7df1e2f1684fa4af925e99294879ad916b4cbb2b4675428347150a842060001b6135fe565b612dbf7fd11c492b989a442c6718bafcae2aadb6a8122b095d3d8ef79d53ebaac90f652b60001b6135fe565b612deb7fdb86c6379ceb1a565db5a7a9b300e059178508ea9f75012a9cf761108a0610f860001b6135fe565b3373ffffffffffffffffffffffffffffffffffffffff166108fc839081150290604051600060405180830381858888f19350505050158015612e31573d6000803e3d6000fd5b5050505050505050565b612e677f181e181415c3b8052edf87856dced6a0f4b63ffd25dd5e207be04e8b5b55d0ce60001b6135fe565b612e937ffc66e2fef2c75b87ffdf4cc52f282e5f497908b2289c79b86682b9fec7d2b74b60001b6135fe565b612ebf7f47763b7a1dae446856211b777016fc9cc6a8e9b312a7702834cbf60982ce2d5b60001b6135fe565b612eeb7fca842a4f9787687a017a59debe12d081721f69ee18aee2d2612730f0b97e322b60001b6135fe565b600c54341015612f30576040517f08c379a0000000000000000000000000000000000000000000000000000000008152600401612f2790613ce3565b60405180910390fd5b612f5c7f43d0c0b7e9cba7841bca9bb70b1db9f21ea4d63b0c2f2ed4ed712917ddb50b4960001b6135fe565b612f887fb5ce03c2446a13595b138f5ac73cef2231ca676f7968ff4d7c2f886ce7bf59c560001b6135fe565b612fb47f159f7266b103ca7bedd3d87575e88a3bf502eb0afab7c670494ac10a9d04774a60001b6135fe565b60007f000000000000000000000000000000000000000000000000000000000000000090506130057f181e34b7eb4b41ef60f291be74c397736a1b19ebb444bd8d7af9e616b04942ac60001b6135fe565b6130317f60a71e086625d2a8e513f81ff19211805cee83e07a737fc86f2ac6177aa0f0a860001b6135fe565b60004790506130627f5911359b0c825082751075dfe944b9e19668b99e96645808c2b507fe1996d10160001b6135fe565b61308e7f0d5077c254986608ba795ee0b0fcaa852101df61f31ab9ff3bd18906a8470e2b60001b6135fe565b60008273ffffffffffffffffffffffffffffffffffffffff166318160ddd6040518163ffffffff1660e01b815260040160206040518083038186803b1580156130d657600080fd5b505afa1580156130ea573d6000803e3d6000fd5b505050506040513d601f19601f8201168201806040525081019061310e91906137f2565b905061313c7f3dfc314413dc90fd1469e603c6ddfa11d2f23448714ea55376295868d39dd28760001b6135fe565b6131687fc9b87bfdcb603fa0efa613e129c37b0290e2492567a2d6f9335c243535fe1e8d60001b6135fe565b600082670de0b6b3a76400003461317f9190613f66565b6131899190613f35565b90506131b77ffe85dc06ad45de97a6e0daa444fe0475d706ef2fb4e216357b18310b206b689f60001b6135fe565b6131e37fdb55758419cfee09e45cbd7908e2ecad85b3e144eb3586a2c0734899e01d5fad60001b6135fe565b60006132117f3c1fc891f8c5b4d5b56f947262dd9861175a58e6ecf03715f18af4865d35fddd60001b6135fe565b61323d7f04f77f1b8c03436cbb655b287a5a6f14d21e4d22d72701af7fb1468801d0014260001b6135fe565b60008314156132d2576132727fa392c1888b1f4ddd3feb353bda071cdf0c6844a08de42bca33b005017b12c1d460001b6135fe565b61329e7ff50dd21db7ba87162529a80df87ced4a8b9c06c1a27a44f521551357a5b33c2c60001b6135fe565b6132ca7f8240fc145771ea11fcb9e8b96bb4b4981999b350ff5f6410d4b73e2e9103101f60001b6135fe565b349050613383565b6132fe7f6e479753633e950db144c9ca6f279a0dd6bacf66fdbe9fd3acc9eb20543e21b160001b6135fe565b61332a7fafa9e2cf22ecc9da19fdcfb9d80eaa0b39582d2284799585d22c83ad28c6f95160001b6135fe565b6133567f2835e8c93114c1aa1ed876658b419d0da2f15d10086d5651ee194cae3293fc8960001b6135fe565b81670de0b6b3a764000061336a9190613fc0565b83836133769190613f66565b6133809190613f35565b90505b6133af7f75efba0562afb656facdaf73dedd448493c05c7912bbdfcd4682b255b91a13cf60001b6135fe565b6133db7f473a4c403376bd6c0dffb2df0cb1919fa9a40d8a2eac3d4fac8a0c271b66490360001b6135fe565b60008573ffffffffffffffffffffffffffffffffffffffff1663449a52f833846040518363ffffffff1660e01b8152600401613418929190613bfa565b602060405180830381600087803b15801561343257600080fd5b505af1158015613446573d6000803e3d6000fd5b505050506040513d601f19601f8201168201806040525081019061346a91906137a0565b90506134987f33fddbc003d6e2534a9f64706aafbcd4973d59313967ab625b08993d4f849f9860001b6135fe565b6134c47f0a9ff9a7c5231a9052b9d65f95243b297309b35bf03d1662da7a3cf531b0905c60001b6135fe565b6134f07f16d2bb871d72bb5cf50280b2738d90c725c7e5bc53971f2de3c75a306a93f35c60001b6135fe565b80613530576040517f08c379a000000000000000000000000000000000000000000000000000000000815260040161352790613c43565b60405180910390fd5b61355c7fde97a01e3ec83bebf34b5b82c86e59bd3ae940b25effa2ce47a48d3eb23c805560001b6135fe565b505050505050565b6135907f12c3e6cec1a9fcbc3461593e02b5c48c7c032876a73bd6d91ceb9dc756d414fe60001b6135fe565b5050565b60006020528060005260406000206000915090505481565b7f000000000000000000000000000000000000000000000000000000000000000081565b6135fc7fa26a998d777fd3673b32ca2a33b28a7ed7f136508bf8592c021257b228cfa5cb60001b6135fe565b565b50565b600061362f7fdb90e2dae5ca695c6f2768d4de0e3c1f11eefc1f39a62b90e38ec212bf5ef85a60001b6135fe565b61365b7fc86a9d17641855985ed00581392205ed1b108f0e65457ac0f60baec4256fc2c660001b6135fe565b6136877f7017c91683a530f43c4c64276c85db301b0ceec8c6863eeb196cb75c045840aa60001b6135fe565b670de0b6b3a7640000600754670de0b6b3a76400006136a69190613edf565b83602001516136b59190613f66565b6136bf9190613f35565b9050919050565b6040518061010001604052806000815260200160008152602001600073ffffffffffffffffffffffffffffffffffffffff168152602001600081526020016000815260200160008152602001600081526020016000151581525090565b600081359050613732816143a6565b92915050565b600081519050613747816143bd565b92915050565b60008135905061375c816143d4565b92915050565b600081519050613771816143d4565b92915050565b60006020828403121561378957600080fd5b600061379784828501613723565b91505092915050565b6000602082840312156137b257600080fd5b60006137c084828501613738565b91505092915050565b6000602082840312156137db57600080fd5b60006137e98482850161374d565b91505092915050565b60006020828403121561380457600080fd5b600061381284828501613762565b91505092915050565b6000806040838503121561382e57600080fd5b600061383c8582860161374d565b925050602061384d8582860161374d565b9150509250929050565b61386081613ff4565b82525050565b61386f81613ff4565b82525050565b61387e81614006565b82525050565b61388d81614006565b82525050565b600061389e82613eb8565b6138a88185613ec3565b93506138b881856020860161403c565b80840191505092915050565b60006138d1602183613ece565b91506138dc826140cd565b604082019050919050565b60006138f4601a83613ece565b91506138ff8261411c565b602082019050919050565b6000613917601583613ece565b915061392282614145565b602082019050919050565b600061393a601983613ece565b91506139458261416e565b602082019050919050565b600061395d602283613ece565b915061396882614197565b604082019050919050565b6000613980601a83613ece565b915061398b826141e6565b602082019050919050565b60006139a3601f83613ece565b91506139ae8261420f565b602082019050919050565b60006139c6601983613ece565b91506139d182614238565b602082019050919050565b60006139e9602083613ece565b91506139f482614261565b602082019050919050565b6000613a0c601f83613ece565b9150613a178261428a565b602082019050919050565b6000613a2f600683613ece565b9150613a3a826142b3565b602082019050919050565b6000613a52601883613ece565b9150613a5d826142dc565b602082019050919050565b6000613a75601a83613ece565b9150613a8082614305565b602082019050919050565b6000613a98601c83613ece565b9150613aa38261432e565b602082019050919050565b6000613abb603483613ece565b9150613ac682614357565b604082019050919050565b61010082016000820151613ae86000850182613b73565b506020820151613afb6020850182613b73565b506040820151613b0e6040850182613857565b506060820151613b216060850182613b73565b506080820151613b346080850182613b73565b5060a0820151613b4760a0850182613b73565b5060c0820151613b5a60c0850182613b73565b5060e0820151613b6d60e0850182613875565b50505050565b613b7c81614032565b82525050565b613b8b81614032565b82525050565b6000613b9d8284613893565b915081905092915050565b6000602082019050613bbd6000830184613866565b92915050565b6000606082019050613bd86000830186613866565b613be56020830185613866565b613bf26040830184613b82565b949350505050565b6000604082019050613c0f6000830185613866565b613c1c6020830184613b82565b9392505050565b60006020820190508181036000830152613c3c816138c4565b9050919050565b60006020820190508181036000830152613c5c816138e7565b9050919050565b60006020820190508181036000830152613c7c8161390a565b9050919050565b60006020820190508181036000830152613c9c8161392d565b9050919050565b60006020820190508181036000830152613cbc81613950565b9050919050565b60006020820190508181036000830152613cdc81613973565b9050919050565b60006020820190508181036000830152613cfc81613996565b9050919050565b60006020820190508181036000830152613d1c816139b9565b9050919050565b60006020820190508181036000830152613d3c816139dc565b9050919050565b60006020820190508181036000830152613d5c816139ff565b9050919050565b60006020820190508181036000830152613d7c81613a22565b9050919050565b60006020820190508181036000830152613d9c81613a45565b9050919050565b60006020820190508181036000830152613dbc81613a68565b9050919050565b60006020820190508181036000830152613ddc81613a8b565b9050919050565b60006020820190508181036000830152613dfc81613aae565b9050919050565b600061010082019050613e196000830184613ad1565b92915050565b6000602082019050613e346000830184613b82565b92915050565b600061010082019050613e50600083018b613b82565b613e5d602083018a613b82565b613e6a6040830189613866565b613e776060830188613b82565b613e846080830187613b82565b613e9160a0830186613b82565b613e9e60c0830185613b82565b613eab60e0830184613884565b9998505050505050505050565b600081519050919050565b600081905092915050565b600082825260208201905092915050565b6000613eea82614032565b9150613ef583614032565b9250827fffffffffffffffffffffffffffffffffffffffffffffffffffffffffffffffff03821115613f2a57613f2961406f565b5b828201905092915050565b6000613f4082614032565b9150613f4b83614032565b925082613f5b57613f5a61409e565b5b828204905092915050565b6000613f7182614032565b9150613f7c83614032565b9250817fffffffffffffffffffffffffffffffffffffffffffffffffffffffffffffffff0483118215151615613fb557613fb461406f565b5b828202905092915050565b6000613fcb82614032565b9150613fd683614032565b925082821015613fe957613fe861406f565b5b828203905092915050565b6000613fff82614012565b9050919050565b60008115159050919050565b600073ffffffffffffffffffffffffffffffffffffffff82169050919050565b6000819050919050565b60005b8381101561405a57808201518184015260208101905061403f565b83811115614069576000848401525b50505050565b7f4e487b7100000000000000000000000000000000000000000000000000000000600052601160045260246000fd5b7f4e487b7100000000000000000000000000000000000000000000000000000000600052601260045260246000fd5b7f4c657665725631506f6f6c3a204d69736d61746368656420626f72726f77657260008201527f7300000000000000000000000000000000000000000000000000000000000000602082015250565b7f4c657665725631506f6f6c3a204c5020546f6b656e206d696e74000000000000600082015250565b7f4c657665725631506f6f6c3a20696e6163746976650000000000000000000000600082015250565b7f4c657665725631506f6f6c3a206c6f616e206578706972656400000000000000600082015250565b7f4c657665725631506f6f6c3a204d617820636f7665726167652065786365656460008201527f6564000000000000000000000000000000000000000000000000000000000000602082015250565b7f4c657665725631506f6f6c3a206578697374616e74206c6f616e000000000000600082015250565b7f4c657665725631506f6f6c3a204465706f736974203c20726571756972656400600082015250565b7f4c657665725631506f6f6c3a206e6f207072696e636970616c00000000000000600082015250565b7f4c657665725631506f6f6c3a206e6674207075726368617365206661696c6564600082015250565b7f4c657665725631506f6f6c3a20706f6f6c2066756e647320746f6f206c6f7700600082015250565b7f414d524c54420000000000000000000000000000000000000000000000000000600082015250565b7f4c657665725631506f6f6c3a206f766572647261667465640000000000000000600082015250565b7f4c657665725631506f6f6c3a204c5020546f6b656e206275726e000000000000600082015250565b7f4c657665725631506f6f6c3a207075726368617365206661696c656400000000600082015250565b7f4c657665725631506f6f6c3a206e6f7420656e6f756768206c6971756964697460008201527f7920746f20636f6c6c6563742062616c616e6365000000000000000000000000602082015250565b6143af81613ff4565b81146143ba57600080fd5b50565b6143c681614006565b81146143d157600080fd5b50565b6143dd81614032565b81146143e857600080fd5b5056fea26469706673582212209f5bd9b187f8145c96f5d23225c00702438e7cd839362d31cde8a291515c60ed64736f6c6343000804003360806040523480156200001157600080fd5b5060405162002a9338038062002a9383398181016040528101906200003791906200028f565b828281600090805190602001906200005192919062000156565b5080600190805190602001906200006a92919062000156565b505050620000a17f3429680e4f0281dce938fe56ef30759fc6341694c6e06befbe48c8bf06ea193260001b6200015360201b60201c565b620000d57fa244e373f36cb8882527aa83a78fc020b8a996e22ca70d294e121cf3af9d58d160001b6200015360201b60201c565b620001097f2b27387c922319f7495c9051b2b669a76c1883a1281f7ec3db88b6aa65a643fe60001b6200015360201b60201c565b80600660006101000a81548173ffffffffffffffffffffffffffffffffffffffff021916908373ffffffffffffffffffffffffffffffffffffffff160217905550505050620004d5565b50565b8280546200016490620003e0565b90600052602060002090601f016020900481019282620001885760008555620001d4565b82601f10620001a357805160ff1916838001178555620001d4565b82800160010185558215620001d4579182015b82811115620001d3578251825591602001919060010190620001b6565b5b509050620001e39190620001e7565b5090565b5b8082111562000202576000816000905550600101620001e8565b5090565b60006200021d620002178462000340565b62000317565b9050828152602081018484840111156200023657600080fd5b62000243848285620003aa565b509392505050565b6000815190506200025c81620004bb565b92915050565b600082601f8301126200027457600080fd5b81516200028684826020860162000206565b91505092915050565b600080600060608486031215620002a557600080fd5b600084015167ffffffffffffffff811115620002c057600080fd5b620002ce8682870162000262565b935050602084015167ffffffffffffffff811115620002ec57600080fd5b620002fa8682870162000262565b92505060406200030d868287016200024b565b9150509250925092565b60006200032362000336565b905062000331828262000416565b919050565b6000604051905090565b600067ffffffffffffffff8211156200035e576200035d6200047b565b5b6200036982620004aa565b9050602081019050919050565b600062000383826200038a565b9050919050565b600073ffffffffffffffffffffffffffffffffffffffff82169050919050565b60005b83811015620003ca578082015181840152602081019050620003ad565b83811115620003da576000848401525b50505050565b60006002820490506001821680620003f957607f821691505b6020821081141562000410576200040f6200044c565b5b50919050565b6200042182620004aa565b810181811067ffffffffffffffff821117156200044357620004426200047b565b5b80604052505050565b7f4e487b7100000000000000000000000000000000000000000000000000000000600052602260045260246000fd5b7f4e487b7100000000000000000000000000000000000000000000000000000000600052604160045260246000fd5b6000601f19601f8301169050919050565b620004c68162000376565b8114620004d257600080fd5b50565b6125ae80620004e56000396000f3fe608060405234801561001057600080fd5b50600436106101005760003560e01c806342966c6811610097578063a22cb46511610066578063a22cb465146102d3578063b88d4fde146102ef578063c87b56dd1461030b578063e985e9c51461033b57610100565b806342966c68146102255780636352211e1461025557806370a082311461028557806395d89b41146102b557610100565b806316f0115b116100d357806316f0115b1461019f57806323b872dd146101bd57806340c10f19146101d957806342842e0e1461020957610100565b806301ffc9a71461010557806306fdde0314610135578063081812fc14610153578063095ea7b314610183575b600080fd5b61011f600480360381019061011a9190611ae8565b61036b565b60405161012c9190611d6e565b60405180910390f35b61013d61044d565b60405161014a9190611d89565b60405180910390f35b61016d60048036038101906101689190611b11565b6104df565b60405161017a9190611d53565b60405180910390f35b61019d60048036038101906101989190611aac565b610564565b005b6101a761067c565b6040516101b49190611d53565b60405180910390f35b6101d760048036038101906101d291906119a6565b6106a2565b005b6101f360048036038101906101ee9190611aac565b6106d3565b6040516102009190611d6e565b60405180910390f35b610223600480360381019061021e91906119a6565b610a03565b005b61023f600480360381019061023a9190611b11565b610a23565b60405161024c9190611d6e565b60405180910390f35b61026f600480360381019061026a9190611b11565b610d3a565b60405161027c9190611d53565b60405180910390f35b61029f600480360381019061029a9190611941565b610dec565b6040516102ac9190611eeb565b60405180910390f35b6102bd610ea4565b6040516102ca9190611d89565b60405180910390f35b6102ed60048036038101906102e89190611a70565b610f36565b005b610309600480360381019061030491906119f5565b610f4c565b005b61032560048036038101906103209190611b11565b610f7e565b6040516103329190611d89565b60405180910390f35b6103556004803603810190610350919061196a565b611025565b6040516103629190611d6e565b60405180910390f35b60007f80ac58cd000000000000000000000000000000000000000000000000000000007bffffffffffffffffffffffffffffffffffffffffffffffffffffffff1916827bffffffffffffffffffffffffffffffffffffffffffffffffffffffff1916148061043657507f5b5e139f000000000000000000000000000000000000000000000000000000007bffffffffffffffffffffffffffffffffffffffffffffffffffffffff1916827bffffffffffffffffffffffffffffffffffffffffffffffffffffffff1916145b806104465750610445826110b9565b5b9050919050565b60606000805461045c906120f4565b80601f0160208091040260200160405190810160405280929190818152602001828054610488906120f4565b80156104d55780601f106104aa576101008083540402835291602001916104d5565b820191906000526020600020905b8154815290600101906020018083116104b857829003601f168201915b5050505050905090565b60006104ea82611123565b610529576040517f08c379a000000000000000000000000000000000000000000000000000000000815260040161052090611e8b565b60405180910390fd5b6004600083815260200190815260200160002060009054906101000a900473ffffffffffffffffffffffffffffffffffffffff169050919050565b600061056f82610d3a565b90508073ffffffffffffffffffffffffffffffffffffffff168373ffffffffffffffffffffffffffffffffffffffff1614156105e0576040517f08c379a00000000000000000000000000000000000000000000000000000000081526004016105d790611ecb565b60405180910390fd5b8073ffffffffffffffffffffffffffffffffffffffff166105ff61118f565b73ffffffffffffffffffffffffffffffffffffffff16148061062e575061062d8161062861118f565b611025565b5b61066d576040517f08c379a000000000000000000000000000000000000000000000000000000000815260040161066490611e0b565b60405180910390fd5b6106778383611197565b505050565b600660009054906101000a900473ffffffffffffffffffffffffffffffffffffffff1681565b6106ce7f0a5956323452bfdf0a6923ae17152afe509e71261d65f6e0e3514c30fb1ff20960001b611250565b505050565b60006107017fc59ff20654c0507435e7aa144b8edde9ca9a80f37f69cd33822290882a56b36460001b611250565b61072d7fba0752b180ff7c7c079082b14d05e783681df31594bc063de38d8d43ea5e1cd160001b611250565b6107597f8730e132d2e15573740b58de0f4873b8868a7cdc89d59d1dafd4ea790de7c16960001b611250565b6107857ffbab64da4e57a233ab5e6e1f07d75b14800f08f87b50695c28998d3322e4640560001b611250565b600660009054906101000a900473ffffffffffffffffffffffffffffffffffffffff1673ffffffffffffffffffffffffffffffffffffffff163373ffffffffffffffffffffffffffffffffffffffff1614610815576040517f08c379a000000000000000000000000000000000000000000000000000000000815260040161080c90611dcb565b60405180910390fd5b6108417f915e87e99d516ac1bf9c8bd84be35130303f11a5dfb5b6a2d1a5c98cefbb789e60001b611250565b61086d7f63961ae6487c1e4c6333e301d1416fe0aa3a62bb1fac93f8ea462fef49edef4160001b611250565b6108997fabcfba8f572a8fe5b885c93ebd056b71de16af000eea77ad05a041fed0b2da6360001b611250565b6108c57f2637c092d5c21a69ae0cef1794194723d5d1fa234fd4b818834c12c7ef2f39f860001b611250565b6108f17f06017756beca8b769b644e1f48da2c2848651226ab9701f960390c37d259eba760001b611250565b6108fb8383611253565b6109277f872dc40cf121b66c0b2d398b1b232c7b98eadd0185e1e0b86a0671a9974bfff660001b611250565b6109537fb97a8d66437bc7fd23b15f033ef24252483cb26ca67f5eaf0d019fe24f251ea860001b611250565b8273ffffffffffffffffffffffffffffffffffffffff167f0f6798a560793a54c3bcfe86a93cde1e73087d944c0ea20544137d4121396885836040516109999190611eeb565b60405180910390a26109cd7f3d4915ae0ee6f5fb559caee86cee528f1ca1d58dbaaebc8c54c585873d40426660001b611250565b6109f97f54e4eabe4b9fa689228264e56724fe851285fff1b1d05ece7d857e103ae9acfe60001b611250565b6001905092915050565b610a1e83838360405180602001604052806000815250610f4c565b505050565b6000610a517fc59ff20654c0507435e7aa144b8edde9ca9a80f37f69cd33822290882a56b36460001b611250565b610a7d7fba0752b180ff7c7c079082b14d05e783681df31594bc063de38d8d43ea5e1cd160001b611250565b610aa97f8730e132d2e15573740b58de0f4873b8868a7cdc89d59d1dafd4ea790de7c16960001b611250565b610ad57ffbab64da4e57a233ab5e6e1f07d75b14800f08f87b50695c28998d3322e4640560001b611250565b600660009054906101000a900473ffffffffffffffffffffffffffffffffffffffff1673ffffffffffffffffffffffffffffffffffffffff163373ffffffffffffffffffffffffffffffffffffffff1614610b65576040517f08c379a0000000000000000000000000000000000000000000000000000000008152600401610b5c90611dcb565b60405180910390fd5b610b917f915e87e99d516ac1bf9c8bd84be35130303f11a5dfb5b6a2d1a5c98cefbb789e60001b611250565b610bbd7f63961ae6487c1e4c6333e301d1416fe0aa3a62bb1fac93f8ea462fef49edef4160001b611250565b610be97f1ad20e1b8df03be1e485a5481c82b273b32ffb8d143a2c2b785aae7f0e6b839f60001b611250565b610c157ff76d780727d92244d39bdc1461f49ed6371d5211ab5c2055f6c0553cdb73c02d60001b611250565b610c417f6dff53d69c36bdd90a9946fbe3690588c050b82a9cc23ee0f5a2c5b685ac7f9d60001b611250565b610c4a8261142d565b610c767ff3310c59bc3a54b3c5c3e971f1705f07ef1c93d96a9a966529d76a71c861799a60001b611250565b610ca27f865d93a20e18a84f47f83e2a6c38d15c72b4f0e2fc1f72af8956b38d4fa5364560001b611250565b7fb90306ad06b2a6ff86ddc9327db583062895ef6540e62dc50add009db5b356eb82604051610cd19190611eeb565b60405180910390a1610d057f5698541290dccd90a9eeadf0c5a0c47279dd4aec191ccd01fe64c187250b7f4360001b611250565b610d317f99dd5454fd5e72dcec570ad6c1c1e27304367dff0100d50a7166cb5d6a85c9e760001b611250565b60019050919050565b6000806002600084815260200190815260200160002060009054906101000a900473ffffffffffffffffffffffffffffffffffffffff169050600073ffffffffffffffffffffffffffffffffffffffff168173ffffffffffffffffffffffffffffffffffffffff161415610de3576040517f08c379a0000000000000000000000000000000000000000000000000000000008152600401610dda90611e4b565b60405180910390fd5b80915050919050565b60008073ffffffffffffffffffffffffffffffffffffffff168273ffffffffffffffffffffffffffffffffffffffff161415610e5d576040517f08c379a0000000000000000000000000000000000000000000000000000000008152600401610e5490611e2b565b60405180910390fd5b600360008373ffffffffffffffffffffffffffffffffffffffff1673ffffffffffffffffffffffffffffffffffffffff168152602001908152602001600020549050919050565b606060018054610eb3906120f4565b80601f0160208091040260200160405190810160405280929190818152602001828054610edf906120f4565b8015610f2c5780601f10610f0157610100808354040283529160200191610f2c565b820191906000526020600020905b815481529060010190602001808311610f0f57829003601f168201915b5050505050905090565b610f48610f4161118f565b838361154a565b5050565b610f787f61551de36d960a08f2327fb641abd26fd9d7c587906ab5c848632f89746be16c60001b611250565b50505050565b6060610f8982611123565b610fc8576040517f08c379a0000000000000000000000000000000000000000000000000000000008152600401610fbf90611eab565b60405180910390fd5b6000610fd26116b7565b90506000815111610ff2576040518060200160405280600081525061101d565b80610ffc846116ce565b60405160200161100d929190611d2f565b6040516020818303038152906040525b915050919050565b6000600560008473ffffffffffffffffffffffffffffffffffffffff1673ffffffffffffffffffffffffffffffffffffffff16815260200190815260200160002060008373ffffffffffffffffffffffffffffffffffffffff1673ffffffffffffffffffffffffffffffffffffffff16815260200190815260200160002060009054906101000a900460ff16905092915050565b60007f01ffc9a7000000000000000000000000000000000000000000000000000000007bffffffffffffffffffffffffffffffffffffffffffffffffffffffff1916827bffffffffffffffffffffffffffffffffffffffffffffffffffffffff1916149050919050565b60008073ffffffffffffffffffffffffffffffffffffffff166002600084815260200190815260200160002060009054906101000a900473ffffffffffffffffffffffffffffffffffffffff1673ffffffffffffffffffffffffffffffffffffffff1614159050919050565b600033905090565b816004600083815260200190815260200160002060006101000a81548173ffffffffffffffffffffffffffffffffffffffff021916908373ffffffffffffffffffffffffffffffffffffffff160217905550808273ffffffffffffffffffffffffffffffffffffffff1661120a83610d3a565b73ffffffffffffffffffffffffffffffffffffffff167f8c5be1e5ebec7d5bd14f71427d1e84f3dd0314c0f7b2291e5b200ac8c7c3b92560405160405180910390a45050565b50565b600073ffffffffffffffffffffffffffffffffffffffff168273ffffffffffffffffffffffffffffffffffffffff1614156112c3576040517f08c379a00000000000000000000000000000000000000000000000000000000081526004016112ba90611e6b565b60405180910390fd5b6112cc81611123565b1561130c576040517f08c379a000000000000000000000000000000000000000000000000000000000815260040161130390611dab565b60405180910390fd5b6113186000838361187b565b6001600360008473ffffffffffffffffffffffffffffffffffffffff1673ffffffffffffffffffffffffffffffffffffffff16815260200190815260200160002060008282546113689190611f83565b92505081905550816002600083815260200190815260200160002060006101000a81548173ffffffffffffffffffffffffffffffffffffffff021916908373ffffffffffffffffffffffffffffffffffffffff160217905550808273ffffffffffffffffffffffffffffffffffffffff16600073ffffffffffffffffffffffffffffffffffffffff167fddf252ad1be2c89b69c2b068fc378daa952ba7f163c4a11628f55a4df523b3ef60405160405180910390a461142960008383611880565b5050565b600061143882610d3a565b90506114468160008461187b565b611451600083611197565b6001600360008373ffffffffffffffffffffffffffffffffffffffff1673ffffffffffffffffffffffffffffffffffffffff16815260200190815260200160002060008282546114a1919061200a565b925050819055506002600083815260200190815260200160002060006101000a81549073ffffffffffffffffffffffffffffffffffffffff021916905581600073ffffffffffffffffffffffffffffffffffffffff168273ffffffffffffffffffffffffffffffffffffffff167fddf252ad1be2c89b69c2b068fc378daa952ba7f163c4a11628f55a4df523b3ef60405160405180910390a461154681600084611880565b5050565b8173ffffffffffffffffffffffffffffffffffffffff168373ffffffffffffffffffffffffffffffffffffffff1614156115b9576040517f08c379a00000000000000000000000000000000000000000000000000000000081526004016115b090611deb565b60405180910390fd5b80600560008573ffffffffffffffffffffffffffffffffffffffff1673ffffffffffffffffffffffffffffffffffffffff16815260200190815260200160002060008473ffffffffffffffffffffffffffffffffffffffff1673ffffffffffffffffffffffffffffffffffffffff16815260200190815260200160002060006101000a81548160ff0219169083151502179055508173ffffffffffffffffffffffffffffffffffffffff168373ffffffffffffffffffffffffffffffffffffffff167f17307eab39ab6107e8899845ad3d59bd9653f200f220920489ca2b5937696c31836040516116aa9190611d6e565b60405180910390a3505050565b606060405180602001604052806000815250905090565b60606000821415611716576040518060400160405280600181526020017f30000000000000000000000000000000000000000000000000000000000000008152509050611876565b600082905060005b6000821461174857808061173190612157565b915050600a826117419190611fd9565b915061171e565b60008167ffffffffffffffff81111561178a577f4e487b7100000000000000000000000000000000000000000000000000000000600052604160045260246000fd5b6040519080825280601f01601f1916602001820160405280156117bc5781602001600182028036833780820191505090505b5090505b6000851461186f576001826117d5919061200a565b9150600a856117e491906121a0565b60306117f09190611f83565b60f81b81838151811061182c577f4e487b7100000000000000000000000000000000000000000000000000000000600052603260045260246000fd5b60200101907effffffffffffffffffffffffffffffffffffffffffffffffffffffffffffff1916908160001a905350600a856118689190611fd9565b94506117c0565b8093505050505b919050565b505050565b505050565b600061189861189384611f2b565b611f06565b9050828152602081018484840111156118b057600080fd5b6118bb8482856120b2565b509392505050565b6000813590506118d28161251c565b92915050565b6000813590506118e781612533565b92915050565b6000813590506118fc8161254a565b92915050565b600082601f83011261191357600080fd5b8135611923848260208601611885565b91505092915050565b60008135905061193b81612561565b92915050565b60006020828403121561195357600080fd5b6000611961848285016118c3565b91505092915050565b6000806040838503121561197d57600080fd5b600061198b858286016118c3565b925050602061199c858286016118c3565b9150509250929050565b6000806000606084860312156119bb57600080fd5b60006119c9868287016118c3565b93505060206119da868287016118c3565b92505060406119eb8682870161192c565b9150509250925092565b60008060008060808587031215611a0b57600080fd5b6000611a19878288016118c3565b9450506020611a2a878288016118c3565b9350506040611a3b8782880161192c565b925050606085013567ffffffffffffffff811115611a5857600080fd5b611a6487828801611902565b91505092959194509250565b60008060408385031215611a8357600080fd5b6000611a91858286016118c3565b9250506020611aa2858286016118d8565b9150509250929050565b60008060408385031215611abf57600080fd5b6000611acd858286016118c3565b9250506020611ade8582860161192c565b9150509250929050565b600060208284031215611afa57600080fd5b6000611b08848285016118ed565b91505092915050565b600060208284031215611b2357600080fd5b6000611b318482850161192c565b91505092915050565b611b438161203e565b82525050565b611b5281612050565b82525050565b6000611b6382611f5c565b611b6d8185611f67565b9350611b7d8185602086016120c1565b611b868161228d565b840191505092915050565b6000611b9c82611f5c565b611ba68185611f78565b9350611bb68185602086016120c1565b80840191505092915050565b6000611bcf601c83611f67565b9150611bda8261229e565b602082019050919050565b6000611bf2601983611f67565b9150611bfd826122c7565b602082019050919050565b6000611c15601983611f67565b9150611c20826122f0565b602082019050919050565b6000611c38603883611f67565b9150611c4382612319565b604082019050919050565b6000611c5b602a83611f67565b9150611c6682612368565b604082019050919050565b6000611c7e602983611f67565b9150611c89826123b7565b604082019050919050565b6000611ca1602083611f67565b9150611cac82612406565b602082019050919050565b6000611cc4602c83611f67565b9150611ccf8261242f565b604082019050919050565b6000611ce7602f83611f67565b9150611cf28261247e565b604082019050919050565b6000611d0a602183611f67565b9150611d15826124cd565b604082019050919050565b611d29816120a8565b82525050565b6000611d3b8285611b91565b9150611d478284611b91565b91508190509392505050565b6000602082019050611d686000830184611b3a565b92915050565b6000602082019050611d836000830184611b49565b92915050565b60006020820190508181036000830152611da38184611b58565b905092915050565b60006020820190508181036000830152611dc481611bc2565b9050919050565b60006020820190508181036000830152611de481611be5565b9050919050565b60006020820190508181036000830152611e0481611c08565b9050919050565b60006020820190508181036000830152611e2481611c2b565b9050919050565b60006020820190508181036000830152611e4481611c4e565b9050919050565b60006020820190508181036000830152611e6481611c71565b9050919050565b60006020820190508181036000830152611e8481611c94565b9050919050565b60006020820190508181036000830152611ea481611cb7565b9050919050565b60006020820190508181036000830152611ec481611cda565b9050919050565b60006020820190508181036000830152611ee481611cfd565b9050919050565b6000602082019050611f006000830184611d20565b92915050565b6000611f10611f21565b9050611f1c8282612126565b919050565b6000604051905090565b600067ffffffffffffffff821115611f4657611f4561225e565b5b611f4f8261228d565b9050602081019050919050565b600081519050919050565b600082825260208201905092915050565b600081905092915050565b6000611f8e826120a8565b9150611f99836120a8565b9250827fffffffffffffffffffffffffffffffffffffffffffffffffffffffffffffffff03821115611fce57611fcd6121d1565b5b828201905092915050565b6000611fe4826120a8565b9150611fef836120a8565b925082611fff57611ffe612200565b5b828204905092915050565b6000612015826120a8565b9150612020836120a8565b925082821015612033576120326121d1565b5b828203905092915050565b600061204982612088565b9050919050565b60008115159050919050565b60007fffffffff0000000000000000000000000000000000000000000000000000000082169050919050565b600073ffffffffffffffffffffffffffffffffffffffff82169050919050565b6000819050919050565b82818337600083830152505050565b60005b838110156120df5780820151818401526020810190506120c4565b838111156120ee576000848401525b50505050565b6000600282049050600182168061210c57607f821691505b602082108114156121205761211f61222f565b5b50919050565b61212f8261228d565b810181811067ffffffffffffffff8211171561214e5761214d61225e565b5b80604052505050565b6000612162826120a8565b91507fffffffffffffffffffffffffffffffffffffffffffffffffffffffffffffffff821415612195576121946121d1565b5b600182019050919050565b60006121ab826120a8565b91506121b6836120a8565b9250826121c6576121c5612200565b5b828206905092915050565b7f4e487b7100000000000000000000000000000000000000000000000000000000600052601160045260246000fd5b7f4e487b7100000000000000000000000000000000000000000000000000000000600052601260045260246000fd5b7f4e487b7100000000000000000000000000000000000000000000000000000000600052602260045260246000fd5b7f4e487b7100000000000000000000000000000000000000000000000000000000600052604160045260246000fd5b6000601f19601f8301169050919050565b7f4552433732313a20746f6b656e20616c7265616479206d696e74656400000000600082015250565b7f4c6576657256314552433732314c3a206e6f74206f776e657200000000000000600082015250565b7f4552433732313a20617070726f766520746f2063616c6c657200000000000000600082015250565b7f4552433732313a20617070726f76652063616c6c6572206973206e6f74206f7760008201527f6e6572206e6f7220617070726f76656420666f7220616c6c0000000000000000602082015250565b7f4552433732313a2062616c616e636520717565727920666f7220746865207a6560008201527f726f206164647265737300000000000000000000000000000000000000000000602082015250565b7f4552433732313a206f776e657220717565727920666f72206e6f6e657869737460008201527f656e7420746f6b656e0000000000000000000000000000000000000000000000602082015250565b7f4552433732313a206d696e7420746f20746865207a65726f2061646472657373600082015250565b7f4552433732313a20617070726f76656420717565727920666f72206e6f6e657860008201527f697374656e7420746f6b656e0000000000000000000000000000000000000000602082015250565b7f4552433732314d657461646174613a2055524920717565727920666f72206e6f60008201527f6e6578697374656e7420746f6b656e0000000000000000000000000000000000602082015250565b7f4552433732313a20617070726f76616c20746f2063757272656e74206f776e6560008201527f7200000000000000000000000000000000000000000000000000000000000000602082015250565b6125258161203e565b811461253057600080fd5b50565b61253c81612050565b811461254757600080fd5b50565b6125538161205c565b811461255e57600080fd5b50565b61256a816120a8565b811461257557600080fd5b5056fea264697066735822122095196dafa321bb1df827e313c4d8afedb99db17e7153a079ae038e368ccede6064736f6c6343000804003360806040523480156200001157600080fd5b50604051620024113803806200241183398181016040528101906200003791906200028f565b828281600390805190602001906200005192919062000156565b5080600490805190602001906200006a92919062000156565b505050620000a17f894171fdd91ebecae0c42ba0f3c3c131a6786fb413d7e3ed02ae3c474b73777360001b6200015360201b60201c565b620000d57f6ce9729c344935974e5888481c953ed9ecc935c136ad88cc4c17006e081015d660001b6200015360201b60201c565b620001097f8484634c2127aa8a54133fab776a31ea9ead52e50b0a949ce63bef5183d0e21760001b6200015360201b60201c565b80600560006101000a81548173ffffffffffffffffffffffffffffffffffffffff021916908373ffffffffffffffffffffffffffffffffffffffff160217905550505050620004d5565b50565b8280546200016490620003e0565b90600052602060002090601f016020900481019282620001885760008555620001d4565b82601f10620001a357805160ff1916838001178555620001d4565b82800160010185558215620001d4579182015b82811115620001d3578251825591602001919060010190620001b6565b5b509050620001e39190620001e7565b5090565b5b8082111562000202576000816000905550600101620001e8565b5090565b60006200021d620002178462000340565b62000317565b9050828152602081018484840111156200023657600080fd5b62000243848285620003aa565b509392505050565b6000815190506200025c81620004bb565b92915050565b600082601f8301126200027457600080fd5b81516200028684826020860162000206565b91505092915050565b600080600060608486031215620002a557600080fd5b600084015167ffffffffffffffff811115620002c057600080fd5b620002ce8682870162000262565b935050602084015167ffffffffffffffff811115620002ec57600080fd5b620002fa8682870162000262565b92505060406200030d868287016200024b565b9150509250925092565b60006200032362000336565b905062000331828262000416565b919050565b6000604051905090565b600067ffffffffffffffff8211156200035e576200035d6200047b565b5b6200036982620004aa565b9050602081019050919050565b600062000383826200038a565b9050919050565b600073ffffffffffffffffffffffffffffffffffffffff82169050919050565b60005b83811015620003ca578082015181840152602081019050620003ad565b83811115620003da576000848401525b50505050565b60006002820490506001821680620003f957607f821691505b6020821081141562000410576200040f6200044c565b5b50919050565b6200042182620004aa565b810181811067ffffffffffffffff821117156200044357620004426200047b565b5b80604052505050565b7f4e487b7100000000000000000000000000000000000000000000000000000000600052602260045260246000fd5b7f4e487b7100000000000000000000000000000000000000000000000000000000600052604160045260246000fd5b6000601f19601f8301169050919050565b620004c68162000376565b8114620004d257600080fd5b50565b611f2c80620004e56000396000f3fe608060405234801561001057600080fd5b50600436106100ea5760003560e01c8063449a52f81161008c57806395d89b411161006657806395d89b4114610287578063a457c2d7146102a5578063a9059cbb146102d5578063dd62ed3e14610305576100ea565b8063449a52f8146101f757806370a082311461022757806379cc679014610257576100ea565b806318160ddd116100c857806318160ddd1461015b57806323b872dd14610179578063313ce567146101a957806339509351146101c7576100ea565b806306fdde03146100ef578063095ea7b31461010d57806316f0115b1461013d575b600080fd5b6100f7610335565b604051610104919061184e565b60405180910390f35b610127600480360381019061012291906115e6565b6103c7565b6040516101349190611833565b60405180910390f35b6101456103ea565b6040516101529190611818565b60405180910390f35b610163610410565b60405161017091906119d0565b60405180910390f35b610193600480360381019061018e9190611597565b61041a565b6040516101a09190611833565b60405180910390f35b6101b1610449565b6040516101be91906119eb565b60405180910390f35b6101e160048036038101906101dc91906115e6565b610452565b6040516101ee9190611833565b60405180910390f35b610211600480360381019061020c91906115e6565b610489565b60405161021e9190611833565b60405180910390f35b610241600480360381019061023c9190611532565b6107b9565b60405161024e91906119d0565b60405180910390f35b610271600480360381019061026c91906115e6565b610801565b60405161027e9190611833565b60405180910390f35b61028f610b31565b60405161029c919061184e565b60405180910390f35b6102bf60048036038101906102ba91906115e6565b610bc3565b6040516102cc9190611833565b60405180910390f35b6102ef60048036038101906102ea91906115e6565b610c3a565b6040516102fc9190611833565b60405180910390f35b61031f600480360381019061031a919061155b565b610c5d565b60405161032c91906119d0565b60405180910390f35b60606003805461034490611b34565b80601f016020809104026020016040519081016040528092919081815260200182805461037090611b34565b80156103bd5780601f10610392576101008083540402835291602001916103bd565b820191906000526020600020905b8154815290600101906020018083116103a057829003601f168201915b5050505050905090565b6000806103d2610ce4565b90506103df818585610cec565b600191505092915050565b600560009054906101000a900473ffffffffffffffffffffffffffffffffffffffff1681565b6000600254905090565b600080610425610ce4565b9050610432858285610eb7565b61043d858585610f43565b60019150509392505050565b60006012905090565b60008061045d610ce4565b905061047e81858561046f8589610c5d565b6104799190611a22565b610cec565b600191505092915050565b60006104b77fb7ba21c7953209a8b827d3ea705d06c8597abec946aaa930d663033f6a70cffa60001b6111c4565b6104e37f29d2ab52c18a4c861ed21966f798d699730754b09fdd8676a08f840dc18542c460001b6111c4565b61050f7fea4ce798e952511f1a7b75f5fe3f04a50f0a69416e90abee39af303200eeeb9e60001b6111c4565b61053b7f98464eb1cb3cc0afddf339d57806ffd8ca6432579bcd99de790634b82004a07560001b6111c4565b600560009054906101000a900473ffffffffffffffffffffffffffffffffffffffff1673ffffffffffffffffffffffffffffffffffffffff163373ffffffffffffffffffffffffffffffffffffffff16146105cb576040517f08c379a00000000000000000000000000000000000000000000000000000000081526004016105c290611970565b60405180910390fd5b6105f77fc31804dde4de5c75a508c2b77768dfd4a41b1a5b0887134d3595841be649912f60001b6111c4565b6106237fb37efe92e26afc16b18e800876fba9a2b8fe9d3a2a4cab0b81cb7a20ac3fd7d660001b6111c4565b61064f7f588518acf98d4f3ec91c914b01619d74a77e87ebb2b9780b9850954e4af0239760001b6111c4565b61067b7ffca80a783657c7edc5f834ad650190fc013b3698ad22fd1d959d39b63572523b60001b6111c4565b6106a77f5e24eb476ef67c3250c7dff1a232be93f66af0dca9db6228c82553e3ed101d1560001b6111c4565b6106b183836111c7565b6106dd7ff4828fa67ca8c5bbf5bb284cb2349c4127b53a76f443fdd9592184f511c5dbae60001b6111c4565b6107097f63e6af0e26fc8b1a53fdde80a27f80368129e9cce718f8623b021ae6a24e8a0460001b6111c4565b8273ffffffffffffffffffffffffffffffffffffffff167f0f6798a560793a54c3bcfe86a93cde1e73087d944c0ea20544137d41213968858360405161074f91906119d0565b60405180910390a26107837fe4f033950c6030970118717ab76213ecfa233cddc29630e99eeddac3a933f60b60001b6111c4565b6107af7faa958a31ab99911f6d17e30e70f1d98979a66645204d7c532f1eb520642c497c60001b6111c4565b6001905092915050565b60008060008373ffffffffffffffffffffffffffffffffffffffff1673ffffffffffffffffffffffffffffffffffffffff168152602001908152602001600020549050919050565b600061082f7fb7ba21c7953209a8b827d3ea705d06c8597abec946aaa930d663033f6a70cffa60001b6111c4565b61085b7f29d2ab52c18a4c861ed21966f798d699730754b09fdd8676a08f840dc18542c460001b6111c4565b6108877fea4ce798e952511f1a7b75f5fe3f04a50f0a69416e90abee39af303200eeeb9e60001b6111c4565b6108b37f98464eb1cb3cc0afddf339d57806ffd8ca6432579bcd99de790634b82004a07560001b6111c4565b600560009054906101000a900473ffffffffffffffffffffffffffffffffffffffff1673ffffffffffffffffffffffffffffffffffffffff163373ffffffffffffffffffffffffffffffffffffffff1614610943576040517f08c379a000000000000000000000000000000000000000000000000000000000815260040161093a90611970565b60405180910390fd5b61096f7fc31804dde4de5c75a508c2b77768dfd4a41b1a5b0887134d3595841be649912f60001b6111c4565b61099b7fb37efe92e26afc16b18e800876fba9a2b8fe9d3a2a4cab0b81cb7a20ac3fd7d660001b6111c4565b6109c77f88a2e34fb1e63c01a850245dd585966dbe01ba1dce0aaa10dffb8b0ff30a967b60001b6111c4565b6109f37ffbbcf656001a0329fc873d0babc0724cc873195e6647471c6e77978cfba41f1b60001b6111c4565b610a1f7f8e1e2532a2dc289ac597e3c17a0e7dda85cac842f40adb855220f3e5d96a8bdd60001b6111c4565b610a298383611327565b610a557f6b2f6d8afe22f66ab5057851e91abeb15a94c5d4a9e0842b8ebd47226ef5c8c960001b6111c4565b610a817f4696a8172c2725ee81a4e46cd74bdb10a311eae9a32fd037eb33581aad16082860001b6111c4565b8273ffffffffffffffffffffffffffffffffffffffff167fcc16f5dbb4873280815c1ee09dbd06736cffcc184412cf7a71a0fdb75d397ca583604051610ac791906119d0565b60405180910390a2610afb7fd3083e83097de8edd0ae5fa73224d8bd54ba377c7307f53e81d589331c25c11460001b6111c4565b610b277fd0c3e5bfd6ead58c5265cf36a598b3a5314135fff78245dd3b01073cbc2fdf4b60001b6111c4565b6001905092915050565b606060048054610b4090611b34565b80601f0160208091040260200160405190810160405280929190818152602001828054610b6c90611b34565b8015610bb95780601f10610b8e57610100808354040283529160200191610bb9565b820191906000526020600020905b815481529060010190602001808311610b9c57829003601f168201915b5050505050905090565b600080610bce610ce4565b90506000610bdc8286610c5d565b905083811015610c21576040517f08c379a0000000000000000000000000000000000000000000000000000000008152600401610c1890611990565b60405180910390fd5b610c2e8286868403610cec565b60019250505092915050565b600080610c45610ce4565b9050610c52818585610f43565b600191505092915050565b6000600160008473ffffffffffffffffffffffffffffffffffffffff1673ffffffffffffffffffffffffffffffffffffffff16815260200190815260200160002060008373ffffffffffffffffffffffffffffffffffffffff1673ffffffffffffffffffffffffffffffffffffffff16815260200190815260200160002054905092915050565b600033905090565b600073ffffffffffffffffffffffffffffffffffffffff168373ffffffffffffffffffffffffffffffffffffffff161415610d5c576040517f08c379a0000000000000000000000000000000000000000000000000000000008152600401610d5390611950565b60405180910390fd5b600073ffffffffffffffffffffffffffffffffffffffff168273ffffffffffffffffffffffffffffffffffffffff161415610dcc576040517f08c379a0000000000000000000000000000000000000000000000000000000008152600401610dc3906118b0565b60405180910390fd5b80600160008573ffffffffffffffffffffffffffffffffffffffff1673ffffffffffffffffffffffffffffffffffffffff16815260200190815260200160002060008473ffffffffffffffffffffffffffffffffffffffff1673ffffffffffffffffffffffffffffffffffffffff168152602001908152602001600020819055508173ffffffffffffffffffffffffffffffffffffffff168373ffffffffffffffffffffffffffffffffffffffff167f8c5be1e5ebec7d5bd14f71427d1e84f3dd0314c0f7b2291e5b200ac8c7c3b92583604051610eaa91906119d0565b60405180910390a3505050565b6000610ec38484610c5d565b90507fffffffffffffffffffffffffffffffffffffffffffffffffffffffffffffffff8114610f3d5781811015610f2f576040517f08c379a0000000000000000000000000000000000000000000000000000000008152600401610f26906118d0565b60405180910390fd5b610f3c8484848403610cec565b5b50505050565b600073ffffffffffffffffffffffffffffffffffffffff168373ffffffffffffffffffffffffffffffffffffffff161415610fb3576040517f08c379a0000000000000000000000000000000000000000000000000000000008152600401610faa90611930565b60405180910390fd5b600073ffffffffffffffffffffffffffffffffffffffff168273ffffffffffffffffffffffffffffffffffffffff161415611023576040517f08c379a000000000000000000000000000000000000000000000000000000000815260040161101a90611870565b60405180910390fd5b61102e8383836114fe565b60008060008573ffffffffffffffffffffffffffffffffffffffff1673ffffffffffffffffffffffffffffffffffffffff168152602001908152602001600020549050818110156110b4576040517f08c379a00000000000000000000000000000000000000000000000000000000081526004016110ab906118f0565b60405180910390fd5b8181036000808673ffffffffffffffffffffffffffffffffffffffff1673ffffffffffffffffffffffffffffffffffffffff16815260200190815260200160002081905550816000808573ffffffffffffffffffffffffffffffffffffffff1673ffffffffffffffffffffffffffffffffffffffff16815260200190815260200160002060008282546111479190611a22565b925050819055508273ffffffffffffffffffffffffffffffffffffffff168473ffffffffffffffffffffffffffffffffffffffff167fddf252ad1be2c89b69c2b068fc378daa952ba7f163c4a11628f55a4df523b3ef846040516111ab91906119d0565b60405180910390a36111be848484611503565b50505050565b50565b600073ffffffffffffffffffffffffffffffffffffffff168273ffffffffffffffffffffffffffffffffffffffff161415611237576040517f08c379a000000000000000000000000000000000000000000000000000000000815260040161122e906119b0565b60405180910390fd5b611243600083836114fe565b80600260008282546112559190611a22565b92505081905550806000808473ffffffffffffffffffffffffffffffffffffffff1673ffffffffffffffffffffffffffffffffffffffff16815260200190815260200160002060008282546112aa9190611a22565b925050819055508173ffffffffffffffffffffffffffffffffffffffff16600073ffffffffffffffffffffffffffffffffffffffff167fddf252ad1be2c89b69c2b068fc378daa952ba7f163c4a11628f55a4df523b3ef8360405161130f91906119d0565b60405180910390a361132360008383611503565b5050565b600073ffffffffffffffffffffffffffffffffffffffff168273ffffffffffffffffffffffffffffffffffffffff161415611397576040517f08c379a000000000000000000000000000000000000000000000000000000000815260040161138e90611910565b60405180910390fd5b6113a3826000836114fe565b60008060008473ffffffffffffffffffffffffffffffffffffffff1673ffffffffffffffffffffffffffffffffffffffff16815260200190815260200160002054905081811015611429576040517f08c379a000000000000000000000000000000000000000000000000000000000815260040161142090611890565b60405180910390fd5b8181036000808573ffffffffffffffffffffffffffffffffffffffff1673ffffffffffffffffffffffffffffffffffffffff1681526020019081526020016000208190555081600260008282546114809190611a78565b92505081905550600073ffffffffffffffffffffffffffffffffffffffff168373ffffffffffffffffffffffffffffffffffffffff167fddf252ad1be2c89b69c2b068fc378daa952ba7f163c4a11628f55a4df523b3ef846040516114e591906119d0565b60405180910390a36114f983600084611503565b505050565b505050565b505050565b60008135905061151781611ec8565b92915050565b60008135905061152c81611edf565b92915050565b60006020828403121561154457600080fd5b600061155284828501611508565b91505092915050565b6000806040838503121561156e57600080fd5b600061157c85828601611508565b925050602061158d85828601611508565b9150509250929050565b6000806000606084860312156115ac57600080fd5b60006115ba86828701611508565b93505060206115cb86828701611508565b92505060406115dc8682870161151d565b9150509250925092565b600080604083850312156115f957600080fd5b600061160785828601611508565b92505060206116188582860161151d565b9150509250929050565b61162b81611aac565b82525050565b61163a81611abe565b82525050565b600061164b82611a06565b6116558185611a11565b9350611665818560208601611b01565b61166e81611bc4565b840191505092915050565b6000611686602383611a11565b915061169182611bd5565b604082019050919050565b60006116a9602283611a11565b91506116b482611c24565b604082019050919050565b60006116cc602283611a11565b91506116d782611c73565b604082019050919050565b60006116ef601d83611a11565b91506116fa82611cc2565b602082019050919050565b6000611712602683611a11565b915061171d82611ceb565b604082019050919050565b6000611735602183611a11565b915061174082611d3a565b604082019050919050565b6000611758602583611a11565b915061176382611d89565b604082019050919050565b600061177b602483611a11565b915061178682611dd8565b604082019050919050565b600061179e602083611a11565b91506117a982611e27565b602082019050919050565b60006117c1602583611a11565b91506117cc82611e50565b604082019050919050565b60006117e4601f83611a11565b91506117ef82611e9f565b602082019050919050565b61180381611aea565b82525050565b61181281611af4565b82525050565b600060208201905061182d6000830184611622565b92915050565b60006020820190506118486000830184611631565b92915050565b600060208201905081810360008301526118688184611640565b905092915050565b6000602082019050818103600083015261188981611679565b9050919050565b600060208201905081810360008301526118a98161169c565b9050919050565b600060208201905081810360008301526118c9816116bf565b9050919050565b600060208201905081810360008301526118e9816116e2565b9050919050565b6000602082019050818103600083015261190981611705565b9050919050565b6000602082019050818103600083015261192981611728565b9050919050565b600060208201905081810360008301526119498161174b565b9050919050565b600060208201905081810360008301526119698161176e565b9050919050565b6000602082019050818103600083015261198981611791565b9050919050565b600060208201905081810360008301526119a9816117b4565b9050919050565b600060208201905081810360008301526119c9816117d7565b9050919050565b60006020820190506119e560008301846117fa565b92915050565b6000602082019050611a006000830184611809565b92915050565b600081519050919050565b600082825260208201905092915050565b6000611a2d82611aea565b9150611a3883611aea565b9250827fffffffffffffffffffffffffffffffffffffffffffffffffffffffffffffffff03821115611a6d57611a6c611b66565b5b828201905092915050565b6000611a8382611aea565b9150611a8e83611aea565b925082821015611aa157611aa0611b66565b5b828203905092915050565b6000611ab782611aca565b9050919050565b60008115159050919050565b600073ffffffffffffffffffffffffffffffffffffffff82169050919050565b6000819050919050565b600060ff82169050919050565b60005b83811015611b1f578082015181840152602081019050611b04565b83811115611b2e576000848401525b50505050565b60006002820490506001821680611b4c57607f821691505b60208210811415611b6057611b5f611b95565b5b50919050565b7f4e487b7100000000000000000000000000000000000000000000000000000000600052601160045260246000fd5b7f4e487b7100000000000000000000000000000000000000000000000000000000600052602260045260246000fd5b6000601f19601f8301169050919050565b7f45524332303a207472616e7366657220746f20746865207a65726f206164647260008201527f6573730000000000000000000000000000000000000000000000000000000000602082015250565b7f45524332303a206275726e20616d6f756e7420657863656564732062616c616e60008201527f6365000000000000000000000000000000000000000000000000000000000000602082015250565b7f45524332303a20617070726f766520746f20746865207a65726f20616464726560008201527f7373000000000000000000000000000000000000000000000000000000000000602082015250565b7f45524332303a20696e73756666696369656e7420616c6c6f77616e6365000000600082015250565b7f45524332303a207472616e7366657220616d6f756e742065786365656473206260008201527f616c616e63650000000000000000000000000000000000000000000000000000602082015250565b7f45524332303a206275726e2066726f6d20746865207a65726f2061646472657360008201527f7300000000000000000000000000000000000000000000000000000000000000602082015250565b7f45524332303a207472616e736665722066726f6d20746865207a65726f20616460008201527f6472657373000000000000000000000000000000000000000000000000000000602082015250565b7f45524332303a20617070726f76652066726f6d20746865207a65726f2061646460008201527f7265737300000000000000000000000000000000000000000000000000000000602082015250565b7f4c6576657256314552433230457373656e7469616c3a206e6f74206f776e6572600082015250565b7f45524332303a2064656372656173656420616c6c6f77616e63652062656c6f7760008201527f207a65726f000000000000000000000000000000000000000000000000000000602082015250565b7f45524332303a206d696e7420746f20746865207a65726f206164647265737300600082015250565b611ed181611aac565b8114611edc57600080fd5b50565b611ee881611aea565b8114611ef357600080fd5b5056fea2646970667358221220fc972e6b3af79ba1cac06c1fa21e77949f62eb434a940df89d432011f414bff964736f6c63430008040033",
  "linkReferences": {},
  "deployedLinkReferences": {}
}